{
  "contractName": "Contract",
  "abi": [
    {
      "inputs": [],
      "stateMutability": "nonpayable",
      "type": "constructor"
    },
    {
      "anonymous": false,
      "inputs": [
        {
          "indexed": false,
          "internalType": "address",
          "name": "message",
          "type": "address"
        }
      ],
      "name": "LogAddressPrint",
      "type": "event"
    },
    {
      "anonymous": false,
      "inputs": [
        {
          "indexed": false,
          "internalType": "string",
          "name": "message",
          "type": "string"
        }
      ],
      "name": "LogPrint",
      "type": "event"
    },
    {
      "inputs": [],
      "name": "getOwner",
      "outputs": [
        {
          "internalType": "address",
          "name": "",
          "type": "address"
        }
      ],
      "stateMutability": "view",
      "type": "function",
      "constant": true
    },
    {
      "inputs": [
        {
          "internalType": "string",
          "name": "uniqueId",
          "type": "string"
        },
        {
          "internalType": "string",
          "name": "ipfsHash",
          "type": "string"
        },
        {
          "internalType": "address",
          "name": "universityAddress",
          "type": "address"
        }
      ],
      "name": "uploadDocument",
      "outputs": [],
      "stateMutability": "nonpayable",
      "type": "function"
    },
    {
      "inputs": [
        {
          "internalType": "string[][]",
          "name": "data",
          "type": "string[][]"
        },
        {
          "internalType": "address[]",
          "name": "studentAddressList",
          "type": "address[]"
        },
        {
          "internalType": "uint256",
          "name": "count",
          "type": "uint256"
        }
      ],
      "name": "uploadDocumentnVerify",
      "outputs": [],
      "stateMutability": "nonpayable",
      "type": "function"
    },
    {
      "inputs": [
        {
          "internalType": "string",
          "name": "uniqueId",
          "type": "string"
        },
        {
          "internalType": "string",
          "name": "oldipfsHash",
          "type": "string"
        },
        {
          "internalType": "string",
          "name": "newipfsHash",
          "type": "string"
        }
      ],
      "name": "verifyDocument",
      "outputs": [],
      "stateMutability": "nonpayable",
      "type": "function"
    },
    {
      "inputs": [
        {
          "internalType": "string",
          "name": "uniqueId",
          "type": "string"
        },
        {
          "internalType": "string",
          "name": "newipfsHash",
          "type": "string"
        }
      ],
      "name": "unverifyDocument",
      "outputs": [],
      "stateMutability": "nonpayable",
      "type": "function"
    },
    {
      "inputs": [
        {
          "internalType": "string",
          "name": "uniqueId",
          "type": "string"
        },
        {
          "internalType": "address",
          "name": "companyAddress",
          "type": "address"
        }
      ],
      "name": "includeCompany",
      "outputs": [],
      "stateMutability": "nonpayable",
      "type": "function"
    },
    {
      "inputs": [
        {
          "internalType": "string",
          "name": "uniqueId",
          "type": "string"
        },
        {
          "internalType": "address",
          "name": "companyAddress",
          "type": "address"
        }
      ],
      "name": "removeCompany",
      "outputs": [],
      "stateMutability": "nonpayable",
      "type": "function"
    },
    {
      "inputs": [
        {
          "internalType": "string",
          "name": "uniqueId",
          "type": "string"
        }
      ],
      "name": "checkStatus",
      "outputs": [
        {
          "internalType": "string[2]",
          "name": "",
          "type": "string[2]"
        }
      ],
      "stateMutability": "view",
      "type": "function",
      "constant": true
    },
    {
      "inputs": [
        {
          "internalType": "string",
          "name": "uniqueId",
          "type": "string"
        },
        {
          "internalType": "string",
          "name": "newipfsHash",
          "type": "string"
        }
      ],
      "name": "checknverify",
      "outputs": [
        {
          "internalType": "bool",
          "name": "",
          "type": "bool"
        }
      ],
      "stateMutability": "view",
      "type": "function",
      "constant": true
    },
    {
      "inputs": [],
      "name": "registerCompany",
      "outputs": [],
      "stateMutability": "nonpayable",
      "type": "function"
    },
    {
      "inputs": [
        {
          "internalType": "address",
          "name": "companyAddress",
          "type": "address"
        }
      ],
      "name": "verifyCompany",
      "outputs": [],
      "stateMutability": "nonpayable",
      "type": "function"
    },
    {
      "inputs": [
        {
          "internalType": "address",
          "name": "companyAddress",
          "type": "address"
        }
      ],
      "name": "unverifyCompany",
      "outputs": [],
      "stateMutability": "nonpayable",
      "type": "function"
    },
    {
      "inputs": [],
      "name": "addUniversity",
      "outputs": [],
      "stateMutability": "nonpayable",
      "type": "function"
    },
    {
      "inputs": [
        {
          "internalType": "address",
          "name": "universityAddress",
          "type": "address"
        }
      ],
      "name": "verifyUniversity",
      "outputs": [],
      "stateMutability": "nonpayable",
      "type": "function"
    },
    {
      "inputs": [
        {
          "internalType": "address",
          "name": "universityAddress",
          "type": "address"
        }
      ],
      "name": "removeUniversity",
      "outputs": [],
      "stateMutability": "nonpayable",
      "type": "function"
    },
    {
      "inputs": [],
      "name": "getAllUniversityAddresses",
      "outputs": [
        {
          "internalType": "address[]",
          "name": "",
          "type": "address[]"
        }
      ],
      "stateMutability": "view",
      "type": "function",
      "constant": true
    },
    {
      "inputs": [],
      "name": "getAllCompanyAddresses",
      "outputs": [
        {
          "internalType": "address[]",
          "name": "",
          "type": "address[]"
        }
      ],
      "stateMutability": "view",
      "type": "function",
      "constant": true
    },
    {
      "inputs": [
        {
          "internalType": "address",
          "name": "universityAddress",
          "type": "address"
        }
      ],
      "name": "checkUniversity",
      "outputs": [
        {
          "internalType": "bool",
          "name": "",
          "type": "bool"
        }
      ],
      "stateMutability": "view",
      "type": "function",
      "constant": true
    },
    {
      "inputs": [
        {
          "internalType": "address",
          "name": "companyAddress",
          "type": "address"
        }
      ],
      "name": "checkCompany",
      "outputs": [
        {
          "internalType": "bool",
          "name": "",
          "type": "bool"
        }
      ],
      "stateMutability": "view",
      "type": "function",
      "constant": true
    },
    {
      "inputs": [],
      "name": "getUniversityDocumentList",
      "outputs": [
        {
          "internalType": "string[]",
          "name": "",
          "type": "string[]"
        }
      ],
      "stateMutability": "view",
      "type": "function",
      "constant": true
    },
    {
      "inputs": [],
      "name": "getStudentDocumentList",
      "outputs": [
        {
          "internalType": "string[]",
          "name": "",
          "type": "string[]"
        }
      ],
      "stateMutability": "view",
      "type": "function",
      "constant": true
    }
  ],
  "bytecode": "0x608060405234801561001057600080fd5b5033600860006101000a81548173ffffffffffffffffffffffffffffffffffffffff021916908373ffffffffffffffffffffffffffffffffffffffff1602179055506151da806100616000396000f3fe608060405234801561001057600080fd5b50600436106101375760003560e01c8063893d20e8116100b8578063b9b3bb361161007c578063b9b3bb36146102fe578063cd89b9361461031c578063db5e842b1461033a578063e1a3e64714610356578063ec6614e214610386578063f592146d146103a257610137565b8063893d20e8146102585780638b999def1461027657806390cc84e014610294578063ab9db63f146102b0578063b77553b6146102ce57610137565b806344b0a995116100ff57806344b0a995146101ca5780635526e6e4146101fa5780635cba100d146102165780637cad110714610232578063877af4651461023c57610137565b806313a658081461013c5780631fe5994b1461014657806328f54b2f146101625780632bbfef891461017e5780633308a90f1461019a575b600080fd5b6101446103be565b005b610160600480360381019061015b919061338a565b6104b0565b005b61017c60048036038101906101779190613415565b6108e2565b005b61019860048036038101906101939190613442565b610a8e565b005b6101b460048036038101906101af9190613415565b610e73565b6040516101c191906134b9565b60405180910390f35b6101e460048036038101906101df91906134d4565b610ec9565b6040516101f1919061365b565b60405180910390f35b610214600480360381019061020f919061367d565b611317565b005b610230600480360381019061022b9190613724565b611727565b005b61023a611ad8565b005b61025660048036038101906102519190613415565b611bca565b005b610260611d76565b60405161026d91906137ab565b60405180910390f35b61027e611da0565b60405161028b9190613884565b60405180910390f35b6102ae60048036038101906102a99190613b66565b611e2e565b005b6102b86122cd565b6040516102c59190613c9f565b60405180910390f35b6102e860048036038101906102e39190613415565b6123e3565b6040516102f591906134b9565b60405180910390f35b610306612439565b6040516103139190613884565b60405180910390f35b6103246124c7565b6040516103319190613c9f565b60405180910390f35b610354600480360381019061034f9190613442565b612669565b005b610370600480360381019061036b9190613724565b612a4c565b60405161037d91906134b9565b60405180910390f35b6103a0600480360381019061039b9190613415565b612daf565b005b6103bc60048036038101906103b79190613415565b612f5b565b005b6000600160003373ffffffffffffffffffffffffffffffffffffffff1673ffffffffffffffffffffffffffffffffffffffff16815260200190815260200160002060006101000a81548160ff0219169083151502179055506006339080600181540180825580915050600190039060005260206000200160009091909190916101000a81548173ffffffffffffffffffffffffffffffffffffffff021916908373ffffffffffffffffffffffffffffffffffffffff1602179055507f894570b4cbd952cb1af656ba8df9c5f7785370e07bdc03173d6290b8feb6e2346040516104a690613d1e565b60405180910390a1565b60008251116104f4576040517f08c379a00000000000000000000000000000000000000000000000000000000081526004016104eb90613d8a565b60405180910390fd5b6000835111610538576040517f08c379a000000000000000000000000000000000000000000000000000000000815260040161052f90613df6565b60405180910390fd5b600073ffffffffffffffffffffffffffffffffffffffff166003846040516105609190613e52565b908152602001604051809103902060000160009054906101000a900473ffffffffffffffffffffffffffffffffffffffff1673ffffffffffffffffffffffffffffffffffffffff16146105e8576040517f08c379a00000000000000000000000000000000000000000000000000000000081526004016105df90613eb5565b60405180910390fd5b600160008273ffffffffffffffffffffffffffffffffffffffff1673ffffffffffffffffffffffffffffffffffffffff16815260200190815260200160002060009054906101000a900460ff16610674576040517f08c379a000000000000000000000000000000000000000000000000000000000815260040161066b90613f47565b60405180910390fd5b600060405180608001604052803373ffffffffffffffffffffffffffffffffffffffff1681526020018373ffffffffffffffffffffffffffffffffffffffff168152602001848152602001600015158152509050806003856040516106d99190613e52565b908152602001604051809103902060008201518160000160006101000a81548173ffffffffffffffffffffffffffffffffffffffff021916908373ffffffffffffffffffffffffffffffffffffffff16021790555060208201518160010160006101000a81548173ffffffffffffffffffffffffffffffffffffffff021916908373ffffffffffffffffffffffffffffffffffffffff1602179055506040820151816002019080519060200190610791929190613108565b5060608201518160030160006101000a81548160ff021916908315150217905550905050600460008373ffffffffffffffffffffffffffffffffffffffff1673ffffffffffffffffffffffffffffffffffffffff1681526020019081526020016000208490806001815401808255809150506001900390600052602060002001600090919091909150908051906020019061082d929190613108565b50600560003373ffffffffffffffffffffffffffffffffffffffff1673ffffffffffffffffffffffffffffffffffffffff168152602001908152602001600020849080600181540180825580915050600190039060005260206000200160009091909190915090805190602001906108a6929190613108565b507f894570b4cbd952cb1af656ba8df9c5f7785370e07bdc03173d6290b8feb6e2346040516108d490613fb3565b60405180910390a150505050565b600860009054906101000a900473ffffffffffffffffffffffffffffffffffffffff1673ffffffffffffffffffffffffffffffffffffffff163373ffffffffffffffffffffffffffffffffffffffff1614610972576040517f08c379a000000000000000000000000000000000000000000000000000000000815260040161096990614045565b60405180910390fd5b600160008273ffffffffffffffffffffffffffffffffffffffff1673ffffffffffffffffffffffffffffffffffffffff16815260200190815260200160002060009054906101000a900460ff166109fe576040517f08c379a00000000000000000000000000000000000000000000000000000000081526004016109f5906140b1565b60405180910390fd5b6000600160008373ffffffffffffffffffffffffffffffffffffffff1673ffffffffffffffffffffffffffffffffffffffff16815260200190815260200160002060006101000a81548160ff0219169083151502179055507f894570b4cbd952cb1af656ba8df9c5f7785370e07bdc03173d6290b8feb6e234604051610a839061411d565b60405180910390a150565b6000825111610ad2576040517f08c379a0000000000000000000000000000000000000000000000000000000008152600401610ac990613df6565b60405180910390fd5b600260008273ffffffffffffffffffffffffffffffffffffffff1673ffffffffffffffffffffffffffffffffffffffff16815260200190815260200160002060009054906101000a900460ff16610b5e576040517f08c379a0000000000000000000000000000000000000000000000000000000008152600401610b5590614189565b60405180910390fd5b600073ffffffffffffffffffffffffffffffffffffffff16600383604051610b869190613e52565b908152602001604051809103902060000160009054906101000a900473ffffffffffffffffffffffffffffffffffffffff1673ffffffffffffffffffffffffffffffffffffffff1603610c0e576040517f08c379a0000000000000000000000000000000000000000000000000000000008152600401610c05906141f5565b60405180910390fd5b600082604051610c1e9190613e52565b908152602001604051809103902060008273ffffffffffffffffffffffffffffffffffffffff1673ffffffffffffffffffffffffffffffffffffffff16815260200190815260200160002060009054906101000a900460ff1615610cb7576040517f08c379a0000000000000000000000000000000000000000000000000000000008152600401610cae90614261565b60405180910390fd5b6000600383604051610cc99190613e52565b908152602001604051809103902090503373ffffffffffffffffffffffffffffffffffffffff168160000160009054906101000a900473ffffffffffffffffffffffffffffffffffffffff1673ffffffffffffffffffffffffffffffffffffffff161480610d8657503373ffffffffffffffffffffffffffffffffffffffff168160010160009054906101000a900473ffffffffffffffffffffffffffffffffffffffff1673ffffffffffffffffffffffffffffffffffffffff16145b610dc5576040517f08c379a0000000000000000000000000000000000000000000000000000000008152600401610dbc906142f3565b60405180910390fd5b6001600084604051610dd79190613e52565b908152602001604051809103902060008473ffffffffffffffffffffffffffffffffffffffff1673ffffffffffffffffffffffffffffffffffffffff16815260200190815260200160002060006101000a81548160ff0219169083151502179055507f894570b4cbd952cb1af656ba8df9c5f7785370e07bdc03173d6290b8feb6e234604051610e669061435f565b60405180910390a1505050565b6000600160008373ffffffffffffffffffffffffffffffffffffffff1673ffffffffffffffffffffffffffffffffffffffff16815260200190815260200160002060009054906101000a900460ff169050919050565b610ed161318e565b6000825111610f15576040517f08c379a0000000000000000000000000000000000000000000000000000000008152600401610f0c90613df6565b60405180910390fd5b600073ffffffffffffffffffffffffffffffffffffffff16600383604051610f3d9190613e52565b908152602001604051809103902060000160009054906101000a900473ffffffffffffffffffffffffffffffffffffffff1673ffffffffffffffffffffffffffffffffffffffff1603610fc5576040517f08c379a0000000000000000000000000000000000000000000000000000000008152600401610fbc906141f5565b60405180910390fd5b6000600383604051610fd79190613e52565b90815260200160405180910390209050600083604051610ff79190613e52565b908152602001604051809103902060003373ffffffffffffffffffffffffffffffffffffffff1673ffffffffffffffffffffffffffffffffffffffff16815260200190815260200160002060009054906101000a900460ff16806110aa57503373ffffffffffffffffffffffffffffffffffffffff168160000160009054906101000a900473ffffffffffffffffffffffffffffffffffffffff1673ffffffffffffffffffffffffffffffffffffffff16145b8061110457503373ffffffffffffffffffffffffffffffffffffffff168160010160009054906101000a900473ffffffffffffffffffffffffffffffffffffffff1673ffffffffffffffffffffffffffffffffffffffff16145b611143576040517f08c379a000000000000000000000000000000000000000000000000000000000815260040161113a906143f1565b60405180910390fd5b8060030160009054906101000a900460ff16156112385760405180604001604052806040518060400160405280600481526020017f747275650000000000000000000000000000000000000000000000000000000081525081526020018260020180546111af90614440565b80601f01602080910402602001604051908101604052809291908181526020018280546111db90614440565b80156112285780601f106111fd57610100808354040283529160200191611228565b820191906000526020600020905b81548152906001019060200180831161120b57829003601f168201915b5050505050815250915050611312565b60405180604001604052806040518060400160405280600581526020017f66616c7365000000000000000000000000000000000000000000000000000000815250815260200182600201805461128d90614440565b80601f01602080910402602001604051908101604052809291908181526020018280546112b990614440565b80156113065780601f106112db57610100808354040283529160200191611306565b820191906000526020600020905b8154815290600101906020018083116112e957829003601f168201915b50505050508152509150505b919050565b600083511161135b576040517f08c379a000000000000000000000000000000000000000000000000000000000815260040161135290613df6565b60405180910390fd5b600160003373ffffffffffffffffffffffffffffffffffffffff1673ffffffffffffffffffffffffffffffffffffffff16815260200190815260200160002060009054906101000a900460ff166113e7576040517f08c379a00000000000000000000000000000000000000000000000000000000081526004016113de906144e3565b60405180910390fd5b600082511161142b576040517f08c379a00000000000000000000000000000000000000000000000000000000081526004016114229061454f565b60405180910390fd5b600081511161146f576040517f08c379a0000000000000000000000000000000000000000000000000000000008152600401611466906145bb565b60405180910390fd5b600073ffffffffffffffffffffffffffffffffffffffff166003846040516114979190613e52565b908152602001604051809103902060000160009054906101000a900473ffffffffffffffffffffffffffffffffffffffff1673ffffffffffffffffffffffffffffffffffffffff160361151f576040517f08c379a0000000000000000000000000000000000000000000000000000000008152600401611516906141f5565b60405180910390fd5b60006003846040516115319190613e52565b908152602001604051809103902090503373ffffffffffffffffffffffffffffffffffffffff168160010160009054906101000a900473ffffffffffffffffffffffffffffffffffffffff1673ffffffffffffffffffffffffffffffffffffffff16146115d3576040517f08c379a00000000000000000000000000000000000000000000000000000000081526004016115ca90614673565b60405180910390fd5b826040516020016115e49190613e52565b604051602081830303815290604052805190602001208160020160405160200161160e9190614727565b6040516020818303038152906040528051906020012014611664576040517f08c379a000000000000000000000000000000000000000000000000000000000815260040161165b9061478a565b60405180910390fd5b8060030160009054906101000a900460ff16156116b6576040517f08c379a00000000000000000000000000000000000000000000000000000000081526004016116ad906147f6565b60405180910390fd5b818160020190805190602001906116ce929190613108565b5060018160030160006101000a81548160ff0219169083151502179055507f894570b4cbd952cb1af656ba8df9c5f7785370e07bdc03173d6290b8feb6e23460405161171990614862565b60405180910390a150505050565b600082511161176b576040517f08c379a000000000000000000000000000000000000000000000000000000000815260040161176290613df6565b60405180910390fd5b600160003373ffffffffffffffffffffffffffffffffffffffff1673ffffffffffffffffffffffffffffffffffffffff16815260200190815260200160002060009054906101000a900460ff166117f7576040517f08c379a00000000000000000000000000000000000000000000000000000000081526004016117ee906148f4565b60405180910390fd5b600081511161183b576040517f08c379a0000000000000000000000000000000000000000000000000000000008152600401611832906145bb565b60405180910390fd5b600073ffffffffffffffffffffffffffffffffffffffff166003836040516118639190613e52565b908152602001604051809103902060000160009054906101000a900473ffffffffffffffffffffffffffffffffffffffff1673ffffffffffffffffffffffffffffffffffffffff16036118eb576040517f08c379a00000000000000000000000000000000000000000000000000000000081526004016118e2906141f5565b60405180910390fd5b60006003836040516118fd9190613e52565b908152602001604051809103902090503373ffffffffffffffffffffffffffffffffffffffff168160010160009054906101000a900473ffffffffffffffffffffffffffffffffffffffff1673ffffffffffffffffffffffffffffffffffffffff161461199f576040517f08c379a0000000000000000000000000000000000000000000000000000000008152600401611996906149ac565b60405180910390fd5b816040516020016119b09190613e52565b60405160208183030381529060405280519060200120816002016040516020016119da9190614727565b6040516020818303038152906040528051906020012014611a30576040517f08c379a0000000000000000000000000000000000000000000000000000000008152600401611a279061478a565b60405180910390fd5b8060030160009054906101000a900460ff16611a81576040517f08c379a0000000000000000000000000000000000000000000000000000000008152600401611a7890614a18565b60405180910390fd5b60008160030160006101000a81548160ff0219169083151502179055507f894570b4cbd952cb1af656ba8df9c5f7785370e07bdc03173d6290b8feb6e234604051611acb90614a84565b60405180910390a1505050565b6000600260003373ffffffffffffffffffffffffffffffffffffffff1673ffffffffffffffffffffffffffffffffffffffff16815260200190815260200160002060006101000a81548160ff0219169083151502179055506007339080600181540180825580915050600190039060005260206000200160009091909190916101000a81548173ffffffffffffffffffffffffffffffffffffffff021916908373ffffffffffffffffffffffffffffffffffffffff1602179055507f894570b4cbd952cb1af656ba8df9c5f7785370e07bdc03173d6290b8feb6e234604051611bc090614af0565b60405180910390a1565b600860009054906101000a900473ffffffffffffffffffffffffffffffffffffffff1673ffffffffffffffffffffffffffffffffffffffff163373ffffffffffffffffffffffffffffffffffffffff1614611c5a576040517f08c379a0000000000000000000000000000000000000000000000000000000008152600401611c5190614045565b60405180910390fd5b600160008273ffffffffffffffffffffffffffffffffffffffff1673ffffffffffffffffffffffffffffffffffffffff16815260200190815260200160002060009054906101000a900460ff1615611ce7576040517f08c379a0000000000000000000000000000000000000000000000000000000008152600401611cde90614b5c565b60405180910390fd5b60018060008373ffffffffffffffffffffffffffffffffffffffff1673ffffffffffffffffffffffffffffffffffffffff16815260200190815260200160002060006101000a81548160ff0219169083151502179055507f894570b4cbd952cb1af656ba8df9c5f7785370e07bdc03173d6290b8feb6e234604051611d6b90614bc8565b60405180910390a150565b6000600860009054906101000a900473ffffffffffffffffffffffffffffffffffffffff16905090565b60606007805480602002602001604051908101604052809291908181526020018280548015611e2457602002820191906000526020600020905b8160009054906101000a900473ffffffffffffffffffffffffffffffffffffffff1673ffffffffffffffffffffffffffffffffffffffff1681526020019060010190808311611dda575b5050505050905090565b600160003373ffffffffffffffffffffffffffffffffffffffff1673ffffffffffffffffffffffffffffffffffffffff16815260200190815260200160002060009054906101000a900460ff16611eba576040517f08c379a0000000000000000000000000000000000000000000000000000000008152600401611eb190613f47565b60405180910390fd5b808351101580611ecb575080825110155b611f0a576040517f08c379a0000000000000000000000000000000000000000000000000000000008152600401611f0190614c34565b60405180910390fd5b8151835114611f4e576040517f08c379a0000000000000000000000000000000000000000000000000000000008152600401611f4590614ca0565b60405180910390fd5b60005b818110156122c7576002848281518110611f6e57611f6d614cc0565b5b60200260200101515114611fb7576040517f08c379a0000000000000000000000000000000000000000000000000000000008152600401611fae90614d61565b60405180910390fd5b60006040518060800160405280858481518110611fd757611fd6614cc0565b5b602002602001015173ffffffffffffffffffffffffffffffffffffffff1681526020013373ffffffffffffffffffffffffffffffffffffffff16815260200186848151811061202957612028614cc0565b5b602002602001015160018151811061204457612043614cc0565b5b60200260200101518152602001600115158152509050600085838151811061206f5761206e614cc0565b5b602002602001015160008151811061208a57612089614cc0565b5b60200260200101519050816003826040516120a59190613e52565b908152602001604051809103902060008201518160000160006101000a81548173ffffffffffffffffffffffffffffffffffffffff021916908373ffffffffffffffffffffffffffffffffffffffff16021790555060208201518160010160006101000a81548173ffffffffffffffffffffffffffffffffffffffff021916908373ffffffffffffffffffffffffffffffffffffffff160217905550604082015181600201908051906020019061215d929190613108565b5060608201518160030160006101000a81548160ff021916908315150217905550905050600460003373ffffffffffffffffffffffffffffffffffffffff1673ffffffffffffffffffffffffffffffffffffffff168152602001908152602001600020819080600181540180825580915050600190039060005260206000200160009091909190915090805190602001906121f9929190613108565b5060056000836000015173ffffffffffffffffffffffffffffffffffffffff1673ffffffffffffffffffffffffffffffffffffffff16815260200190815260200160002081908060018154018082558091505060019003906000526020600020016000909190919091509080519060200190612276929190613108565b507ff5cd562a8c1c6e008d6f406c71229844c575d31ec8f589e1ff43219d50e9b44982600001516040516122aa91906137ab565b60405180910390a1505080806122bf90614db0565b915050611f51565b50505050565b6060600560003373ffffffffffffffffffffffffffffffffffffffff1673ffffffffffffffffffffffffffffffffffffffff168152602001908152602001600020805480602002602001604051908101604052809291908181526020016000905b828210156123da57838290600052602060002001805461234d90614440565b80601f016020809104026020016040519081016040528092919081815260200182805461237990614440565b80156123c65780601f1061239b576101008083540402835291602001916123c6565b820191906000526020600020905b8154815290600101906020018083116123a957829003601f168201915b50505050508152602001906001019061232e565b50505050905090565b6000600260008373ffffffffffffffffffffffffffffffffffffffff1673ffffffffffffffffffffffffffffffffffffffff16815260200190815260200160002060009054906101000a900460ff169050919050565b606060068054806020026020016040519081016040528092919081815260200182805480156124bd57602002820191906000526020600020905b8160009054906101000a900473ffffffffffffffffffffffffffffffffffffffff1673ffffffffffffffffffffffffffffffffffffffff1681526020019060010190808311612473575b5050505050905090565b6060600160003373ffffffffffffffffffffffffffffffffffffffff1673ffffffffffffffffffffffffffffffffffffffff16815260200190815260200160002060009054906101000a900460ff16612555576040517f08c379a000000000000000000000000000000000000000000000000000000000815260040161254c90614e44565b60405180910390fd5b600460003373ffffffffffffffffffffffffffffffffffffffff1673ffffffffffffffffffffffffffffffffffffffff168152602001908152602001600020805480602002602001604051908101604052809291908181526020016000905b828210156126605783829060005260206000200180546125d390614440565b80601f01602080910402602001604051908101604052809291908181526020018280546125ff90614440565b801561264c5780601f106126215761010080835404028352916020019161264c565b820191906000526020600020905b81548152906001019060200180831161262f57829003601f168201915b5050505050815260200190600101906125b4565b50505050905090565b60008251116126ad576040517f08c379a00000000000000000000000000000000000000000000000000000000081526004016126a490613df6565b60405180910390fd5b600260008273ffffffffffffffffffffffffffffffffffffffff1673ffffffffffffffffffffffffffffffffffffffff16815260200190815260200160002060009054906101000a900460ff16612739576040517f08c379a000000000000000000000000000000000000000000000000000000000815260040161273090614189565b60405180910390fd5b600073ffffffffffffffffffffffffffffffffffffffff166003836040516127619190613e52565b908152602001604051809103902060000160009054906101000a900473ffffffffffffffffffffffffffffffffffffffff1673ffffffffffffffffffffffffffffffffffffffff16036127e9576040517f08c379a00000000000000000000000000000000000000000000000000000000081526004016127e0906141f5565b60405180910390fd5b6000826040516127f99190613e52565b908152602001604051809103902060008273ffffffffffffffffffffffffffffffffffffffff1673ffffffffffffffffffffffffffffffffffffffff16815260200190815260200160002060009054906101000a900460ff16612891576040517f08c379a000000000000000000000000000000000000000000000000000000000815260040161288890614ed6565b60405180910390fd5b60006003836040516128a39190613e52565b908152602001604051809103902090503373ffffffffffffffffffffffffffffffffffffffff168160000160009054906101000a900473ffffffffffffffffffffffffffffffffffffffff1673ffffffffffffffffffffffffffffffffffffffff16148061296057503373ffffffffffffffffffffffffffffffffffffffff168160010160009054906101000a900473ffffffffffffffffffffffffffffffffffffffff1673ffffffffffffffffffffffffffffffffffffffff16145b61299f576040517f08c379a000000000000000000000000000000000000000000000000000000000815260040161299690614f68565b60405180910390fd5b600080846040516129b09190613e52565b908152602001604051809103902060008473ffffffffffffffffffffffffffffffffffffffff1673ffffffffffffffffffffffffffffffffffffffff16815260200190815260200160002060006101000a81548160ff0219169083151502179055507f894570b4cbd952cb1af656ba8df9c5f7785370e07bdc03173d6290b8feb6e234604051612a3f90614fd4565b60405180910390a1505050565b600080825111612a91576040517f08c379a0000000000000000000000000000000000000000000000000000000008152600401612a8890613d8a565b60405180910390fd5b6000835111612ad5576040517f08c379a0000000000000000000000000000000000000000000000000000000008152600401612acc90613df6565b60405180910390fd5b600073ffffffffffffffffffffffffffffffffffffffff16600384604051612afd9190613e52565b908152602001604051809103902060000160009054906101000a900473ffffffffffffffffffffffffffffffffffffffff1673ffffffffffffffffffffffffffffffffffffffff1603612b85576040517f08c379a0000000000000000000000000000000000000000000000000000000008152600401612b7c906141f5565b60405180910390fd5b6000600384604051612b979190613e52565b90815260200160405180910390209050600084604051612bb79190613e52565b908152602001604051809103902060003373ffffffffffffffffffffffffffffffffffffffff1673ffffffffffffffffffffffffffffffffffffffff16815260200190815260200160002060009054906101000a900460ff1680612c6a57503373ffffffffffffffffffffffffffffffffffffffff168160000160009054906101000a900473ffffffffffffffffffffffffffffffffffffffff1673ffffffffffffffffffffffffffffffffffffffff16145b80612cc457503373ffffffffffffffffffffffffffffffffffffffff168160010160009054906101000a900473ffffffffffffffffffffffffffffffffffffffff1673ffffffffffffffffffffffffffffffffffffffff16145b612d03576040517f08c379a0000000000000000000000000000000000000000000000000000000008152600401612cfa906143f1565b60405180910390fd5b82604051602001612d149190613e52565b6040516020818303038152906040528051906020012081600201604051602001612d3e9190614727565b6040516020818303038152906040528051906020012014612d94576040517f08c379a0000000000000000000000000000000000000000000000000000000008152600401612d8b9061478a565b60405180910390fd5b8060030160009054906101000a900460ff1691505092915050565b600860009054906101000a900473ffffffffffffffffffffffffffffffffffffffff1673ffffffffffffffffffffffffffffffffffffffff163373ffffffffffffffffffffffffffffffffffffffff1614612e3f576040517f08c379a0000000000000000000000000000000000000000000000000000000008152600401612e3690614045565b60405180910390fd5b600260008273ffffffffffffffffffffffffffffffffffffffff1673ffffffffffffffffffffffffffffffffffffffff16815260200190815260200160002060009054906101000a900460ff16612ecb576040517f08c379a0000000000000000000000000000000000000000000000000000000008152600401612ec290615040565b60405180910390fd5b6000600260008373ffffffffffffffffffffffffffffffffffffffff1673ffffffffffffffffffffffffffffffffffffffff16815260200190815260200160002060006101000a81548160ff0219169083151502179055507f894570b4cbd952cb1af656ba8df9c5f7785370e07bdc03173d6290b8feb6e234604051612f50906150ac565b60405180910390a150565b600860009054906101000a900473ffffffffffffffffffffffffffffffffffffffff1673ffffffffffffffffffffffffffffffffffffffff163373ffffffffffffffffffffffffffffffffffffffff1614612feb576040517f08c379a0000000000000000000000000000000000000000000000000000000008152600401612fe290614045565b60405180910390fd5b600260008273ffffffffffffffffffffffffffffffffffffffff1673ffffffffffffffffffffffffffffffffffffffff16815260200190815260200160002060009054906101000a900460ff1615613078576040517f08c379a000000000000000000000000000000000000000000000000000000000815260040161306f90615118565b60405180910390fd5b6001600260008373ffffffffffffffffffffffffffffffffffffffff1673ffffffffffffffffffffffffffffffffffffffff16815260200190815260200160002060006101000a81548160ff0219169083151502179055507f894570b4cbd952cb1af656ba8df9c5f7785370e07bdc03173d6290b8feb6e2346040516130fd90615184565b60405180910390a150565b82805461311490614440565b90600052602060002090601f016020900481019282613136576000855561317d565b82601f1061314f57805160ff191683800117855561317d565b8280016001018555821561317d579182015b8281111561317c578251825591602001919060010190613161565b5b50905061318a91906131b5565b5090565b60405180604001604052806002905b606081526020019060019003908161319d5790505090565b5b808211156131ce5760008160009055506001016131b6565b5090565b6000604051905090565b600080fd5b600080fd5b600080fd5b600080fd5b6000601f19601f8301169050919050565b7f4e487b7100000000000000000000000000000000000000000000000000000000600052604160045260246000fd5b613239826131f0565b810181811067ffffffffffffffff8211171561325857613257613201565b5b80604052505050565b600061326b6131d2565b90506132778282613230565b919050565b600067ffffffffffffffff82111561329757613296613201565b5b6132a0826131f0565b9050602081019050919050565b82818337600083830152505050565b60006132cf6132ca8461327c565b613261565b9050828152602081018484840111156132eb576132ea6131eb565b5b6132f68482856132ad565b509392505050565b600082601f830112613313576133126131e6565b5b81356133238482602086016132bc565b91505092915050565b600073ffffffffffffffffffffffffffffffffffffffff82169050919050565b60006133578261332c565b9050919050565b6133678161334c565b811461337257600080fd5b50565b6000813590506133848161335e565b92915050565b6000806000606084860312156133a3576133a26131dc565b5b600084013567ffffffffffffffff8111156133c1576133c06131e1565b5b6133cd868287016132fe565b935050602084013567ffffffffffffffff8111156133ee576133ed6131e1565b5b6133fa868287016132fe565b925050604061340b86828701613375565b9150509250925092565b60006020828403121561342b5761342a6131dc565b5b600061343984828501613375565b91505092915050565b60008060408385031215613459576134586131dc565b5b600083013567ffffffffffffffff811115613477576134766131e1565b5b613483858286016132fe565b925050602061349485828601613375565b9150509250929050565b60008115159050919050565b6134b38161349e565b82525050565b60006020820190506134ce60008301846134aa565b92915050565b6000602082840312156134ea576134e96131dc565b5b600082013567ffffffffffffffff811115613508576135076131e1565b5b613514848285016132fe565b91505092915050565b600060029050919050565b600081905092915050565b6000819050919050565b600081519050919050565b600082825260208201905092915050565b60005b8381101561357757808201518184015260208101905061355c565b83811115613586576000848401525b50505050565b60006135978261353d565b6135a18185613548565b93506135b1818560208601613559565b6135ba816131f0565b840191505092915050565b60006135d1838361358c565b905092915050565b6000602082019050919050565b60006135f18261351d565b6135fb8185613528565b93508360208202850161360d85613533565b8060005b85811015613649578484038952815161362a85826135c5565b9450613635836135d9565b925060208a01995050600181019050613611565b50829750879550505050505092915050565b6000602082019050818103600083015261367581846135e6565b905092915050565b600080600060608486031215613696576136956131dc565b5b600084013567ffffffffffffffff8111156136b4576136b36131e1565b5b6136c0868287016132fe565b935050602084013567ffffffffffffffff8111156136e1576136e06131e1565b5b6136ed868287016132fe565b925050604084013567ffffffffffffffff81111561370e5761370d6131e1565b5b61371a868287016132fe565b9150509250925092565b6000806040838503121561373b5761373a6131dc565b5b600083013567ffffffffffffffff811115613759576137586131e1565b5b613765858286016132fe565b925050602083013567ffffffffffffffff811115613786576137856131e1565b5b613792858286016132fe565b9150509250929050565b6137a58161334c565b82525050565b60006020820190506137c0600083018461379c565b92915050565b600081519050919050565b600082825260208201905092915050565b6000819050602082019050919050565b6137fb8161334c565b82525050565b600061380d83836137f2565b60208301905092915050565b6000602082019050919050565b6000613831826137c6565b61383b81856137d1565b9350613846836137e2565b8060005b8381101561387757815161385e8882613801565b975061386983613819565b92505060018101905061384a565b5085935050505092915050565b6000602082019050818103600083015261389e8184613826565b905092915050565b600067ffffffffffffffff8211156138c1576138c0613201565b5b602082029050602081019050919050565b600080fd5b600067ffffffffffffffff8211156138f2576138f1613201565b5b602082029050602081019050919050565b6000613916613911846138d7565b613261565b90508083825260208201905060208402830185811115613939576139386138d2565b5b835b8181101561398057803567ffffffffffffffff81111561395e5761395d6131e6565b5b80860161396b89826132fe565b8552602085019450505060208101905061393b565b5050509392505050565b600082601f83011261399f5761399e6131e6565b5b81356139af848260208601613903565b91505092915050565b60006139cb6139c6846138a6565b613261565b905080838252602082019050602084028301858111156139ee576139ed6138d2565b5b835b81811015613a3557803567ffffffffffffffff811115613a1357613a126131e6565b5b808601613a20898261398a565b855260208501945050506020810190506139f0565b5050509392505050565b600082601f830112613a5457613a536131e6565b5b8135613a648482602086016139b8565b91505092915050565b600067ffffffffffffffff821115613a8857613a87613201565b5b602082029050602081019050919050565b6000613aac613aa784613a6d565b613261565b90508083825260208201905060208402830185811115613acf57613ace6138d2565b5b835b81811015613af85780613ae48882613375565b845260208401935050602081019050613ad1565b5050509392505050565b600082601f830112613b1757613b166131e6565b5b8135613b27848260208601613a99565b91505092915050565b6000819050919050565b613b4381613b30565b8114613b4e57600080fd5b50565b600081359050613b6081613b3a565b92915050565b600080600060608486031215613b7f57613b7e6131dc565b5b600084013567ffffffffffffffff811115613b9d57613b9c6131e1565b5b613ba986828701613a3f565b935050602084013567ffffffffffffffff811115613bca57613bc96131e1565b5b613bd686828701613b02565b9250506040613be786828701613b51565b9150509250925092565b600081519050919050565b600082825260208201905092915050565b6000819050602082019050919050565b6000602082019050919050565b6000613c3582613bf1565b613c3f8185613bfc565b935083602082028501613c5185613c0d565b8060005b85811015613c8d5784840389528151613c6e85826135c5565b9450613c7983613c1d565b925060208a01995050600181019050613c55565b50829750879550505050505092915050565b60006020820190508181036000830152613cb98184613c2a565b905092915050565b600082825260208201905092915050565b7f756e6976657273697479206164646564207375636365737366756c6c79000000600082015250565b6000613d08601d83613cc1565b9150613d1382613cd2565b602082019050919050565b60006020820190508181036000830152613d3781613cfb565b9050919050565b7f4950465320686173682063616e6e6f7420626520656d70747900000000000000600082015250565b6000613d74601983613cc1565b9150613d7f82613d3e565b602082019050919050565b60006020820190508181036000830152613da381613d67565b9050919050565b7f756e6971756549642063616e6e6f7420626520656d7074790000000000000000600082015250565b6000613de0601883613cc1565b9150613deb82613daa565b602082019050919050565b60006020820190508181036000830152613e0f81613dd3565b9050919050565b600081905092915050565b6000613e2c8261353d565b613e368185613e16565b9350613e46818560208601613559565b80840191505092915050565b6000613e5e8284613e21565b915081905092915050565b7f446f63756d656e7420616c726561647920657869737400000000000000000000600082015250565b6000613e9f601683613cc1565b9150613eaa82613e69565b602082019050919050565b60006020820190508181036000830152613ece81613e92565b9050919050565b7f4f6e6c79205265676973746572656420756e697665727369747920697320616c60008201527f6c6f776564000000000000000000000000000000000000000000000000000000602082015250565b6000613f31602583613cc1565b9150613f3c82613ed5565b604082019050919050565b60006020820190508181036000830152613f6081613f24565b9050919050565b7f446f63756d656e742075706c6f61646564207375636365737366756c6c790000600082015250565b6000613f9d601e83613cc1565b9150613fa882613f67565b602082019050919050565b60006020820190508181036000830152613fcc81613f90565b9050919050565b7f4f6e6c792074686520636f6e7472616374206f776e65722063616e207065726660008201527f6f726d207468697320616374696f6e0000000000000000000000000000000000602082015250565b600061402f602f83613cc1565b915061403a82613fd3565b604082019050919050565b6000602082019050818103600083015261405e81614022565b9050919050565b7f756e697665727369747920616c726561647920756e7665726966696564000000600082015250565b600061409b601d83613cc1565b91506140a682614065565b602082019050919050565b600060208201905081810360008301526140ca8161408e565b9050919050565b7f756e69766572736974792072656d6f766564207375636365737366756c6c7900600082015250565b6000614107601f83613cc1565b9150614112826140d1565b602082019050919050565b60006020820190508181036000830152614136816140fa565b9050919050565b7f526571756972652056616c696420436f6d70616e790000000000000000000000600082015250565b6000614173601583613cc1565b915061417e8261413d565b602082019050919050565b600060208201905081810360008301526141a281614166565b9050919050565b7f446f63756d656e7420646f6573206e6f74206578697374000000000000000000600082015250565b60006141df601783613cc1565b91506141ea826141a9565b602082019050919050565b6000602082019050818103600083015261420e816141d2565b9050919050565b7f436f6d70616e7920697320616c726561647920696e636c756465640000000000600082015250565b600061424b601b83613cc1565b915061425682614215565b602082019050919050565b6000602082019050818103600083015261427a8161423e565b9050919050565b7f4f6e6c7920446f63756d656e74204f776e6572206f7220556e6976657273697460008201527f792063616e20706572666f726d207468697320616374696f6e00000000000000602082015250565b60006142dd603983613cc1565b91506142e882614281565b604082019050919050565b6000602082019050818103600083015261430c816142d0565b9050919050565b7f636f6d70616e7920696e636c75646564207375636365737366756c6c79000000600082015250565b6000614349601d83613cc1565b915061435482614313565b602082019050919050565b600060208201905081810360008301526143788161433c565b9050919050565b7f5468697320636f6d70616e79206973206e6f7420617574686f72697a6564206260008201527f79207468652073747564656e74206f7220756e69766572736974790000000000602082015250565b60006143db603b83613cc1565b91506143e68261437f565b604082019050919050565b6000602082019050818103600083015261440a816143ce565b9050919050565b7f4e487b7100000000000000000000000000000000000000000000000000000000600052602260045260246000fd5b6000600282049050600182168061445857607f821691505b60208210810361446b5761446a614411565b5b50919050565b7f4f6e6c792076616c696420756e697665727369746965732063616e207665726960008201527f667920646f63756d656e74730000000000000000000000000000000000000000602082015250565b60006144cd602c83613cc1565b91506144d882614471565b604082019050919050565b600060208201905081810360008301526144fc816144c0565b9050919050565b7f6f6c64204950465320686173682063616e6e6f7420626520656d707479000000600082015250565b6000614539601d83613cc1565b915061454482614503565b602082019050919050565b600060208201905081810360008301526145688161452c565b9050919050565b7f6e6577204950465320686173682063616e6e6f7420626520656d707479000000600082015250565b60006145a5601d83613cc1565b91506145b08261456f565b602082019050919050565b600060208201905081810360008301526145d481614598565b9050919050565b7f5468697320756e6976657273697479206973206e6f7420617574686f72697a6560008201527f6420746f2076657269667920746869732073747564656e74277320646f63756d60208201527f656e740000000000000000000000000000000000000000000000000000000000604082015250565b600061465d604383613cc1565b9150614668826145db565b606082019050919050565b6000602082019050818103600083015261468c81614650565b9050919050565b60008190508160005260206000209050919050565b600081546146b581614440565b6146bf8186613e16565b945060018216600081146146da57600181146146eb5761471e565b60ff1983168652818601935061471e565b6146f485614693565b60005b83811015614716578154818901526001820191506020810190506146f7565b838801955050505b50505092915050565b600061473382846146a8565b915081905092915050565b7f46616b6520646f63756d656e7400000000000000000000000000000000000000600082015250565b6000614774600d83613cc1565b915061477f8261473e565b602082019050919050565b600060208201905081810360008301526147a381614767565b9050919050565b7f446f63756d656e7420697320616c726561647920766572696669656400000000600082015250565b60006147e0601c83613cc1565b91506147eb826147aa565b602082019050919050565b6000602082019050818103600083015261480f816147d3565b9050919050565b7f446f63756d656e74207665726966696564207375636365737366756c6c790000600082015250565b600061484c601e83613cc1565b915061485782614816565b602082019050919050565b6000602082019050818103600083015261487b8161483f565b9050919050565b7f4f6e6c792076616c696420756e697665727369746965732063616e20756e766560008201527f7269667920646f63756d656e7473000000000000000000000000000000000000602082015250565b60006148de602e83613cc1565b91506148e982614882565b604082019050919050565b6000602082019050818103600083015261490d816148d1565b9050919050565b7f5468697320756e6976657273697479206973206e6f7420617574686f72697a6560008201527f6420746f20756e76657269667920746869732073747564656e74277320646f6360208201527f756d656e74000000000000000000000000000000000000000000000000000000604082015250565b6000614996604583613cc1565b91506149a182614914565b606082019050919050565b600060208201905081810360008301526149c581614989565b9050919050565b7f446f63756d656e7420697320616c726561647920756e76657269666965640000600082015250565b6000614a02601e83613cc1565b9150614a0d826149cc565b602082019050919050565b60006020820190508181036000830152614a31816149f5565b9050919050565b7f446f63756d656e7420756e7665726966696564207375636365737366756c6c79600082015250565b6000614a6e602083613cc1565b9150614a7982614a38565b602082019050919050565b60006020820190508181036000830152614a9d81614a61565b9050919050565b7f636f6d70616e792072656769737465726564207375636365737366756c6c7900600082015250565b6000614ada601f83613cc1565b9150614ae582614aa4565b602082019050919050565b60006020820190508181036000830152614b0981614acd565b9050919050565b7f756e697665727369747920616c72656164792076657269666965640000000000600082015250565b6000614b46601b83613cc1565b9150614b5182614b10565b602082019050919050565b60006020820190508181036000830152614b7581614b39565b9050919050565b7f756e6976657273697479207665726966696564207375636365737366756c6c79600082015250565b6000614bb2602083613cc1565b9150614bbd82614b7c565b602082019050919050565b60006020820190508181036000830152614be181614ba5565b9050919050565b7f436f756e742065786365656473206172726179206c656e677468000000000000600082015250565b6000614c1e601a83613cc1565b9150614c2982614be8565b602082019050919050565b60006020820190508181036000830152614c4d81614c11565b9050919050565b7f656c656d656e7473206d69736d61746368000000000000000000000000000000600082015250565b6000614c8a601183613cc1565b9150614c9582614c54565b602082019050919050565b60006020820190508181036000830152614cb981614c7d565b9050919050565b7f4e487b7100000000000000000000000000000000000000000000000000000000600052603260045260246000fd5b7f45616368206461746120726f772073686f756c642068617665203220656c656d60008201527f656e747300000000000000000000000000000000000000000000000000000000602082015250565b6000614d4b602483613cc1565b9150614d5682614cef565b604082019050919050565b60006020820190508181036000830152614d7a81614d3e565b9050919050565b7f4e487b7100000000000000000000000000000000000000000000000000000000600052601160045260246000fd5b6000614dbb82613b30565b91507fffffffffffffffffffffffffffffffffffffffffffffffffffffffffffffffff8203614ded57614dec614d81565b5b600182019050919050565b7f726571756972652076616c696420756e69766572736974790000000000000000600082015250565b6000614e2e601883613cc1565b9150614e3982614df8565b602082019050919050565b60006020820190508181036000830152614e5d81614e21565b9050919050565b7f436f6d70616e79206973206e6f7420696e636c7564656420627920746865207360008201527f747564656e74206f7220756e6976657273697479000000000000000000000000602082015250565b6000614ec0603483613cc1565b9150614ecb82614e64565b604082019050919050565b60006020820190508181036000830152614eef81614eb3565b9050919050565b7f4f6e6c7920446f63756d656e74204f776e6572206f7220756e6976657273697460008201527f792063616e20706572666f726d207468697320616374696f6e00000000000000602082015250565b6000614f52603983613cc1565b9150614f5d82614ef6565b604082019050919050565b60006020820190508181036000830152614f8181614f45565b9050919050565b7f636f6d70616e792072656d6f766564207375636365737366756c6c7900000000600082015250565b6000614fbe601c83613cc1565b9150614fc982614f88565b602082019050919050565b60006020820190508181036000830152614fed81614fb1565b9050919050565b7f636f6d70616e7920616c7265647920756e766572696669656400000000000000600082015250565b600061502a601983613cc1565b915061503582614ff4565b602082019050919050565b600060208201905081810360008301526150598161501d565b9050919050565b7f636f6d70616e7920756e2d7665726966696564207375636365737366756c6c79600082015250565b6000615096602083613cc1565b91506150a182615060565b602082019050919050565b600060208201905081810360008301526150c581615089565b9050919050565b7f636f6d70616e7920616c72656479207665726966696564000000000000000000600082015250565b6000615102601783613cc1565b915061510d826150cc565b602082019050919050565b60006020820190508181036000830152615131816150f5565b9050919050565b7f636f6d70616e79207665726966696564207375636365737366756c6c79000000600082015250565b600061516e601d83613cc1565b915061517982615138565b602082019050919050565b6000602082019050818103600083015261519d81615161565b905091905056fea2646970667358221220b1d147c8b600dacc909062fa94149448ba21a1387a6fceafaafa981ca329292664736f6c634300080d0033",
  "immutableReferences": {},
  "source": "// SPDX-License-Identifier: MIT\r\npragma solidity ^0.8.0;\r\n\r\n\r\ncontract Contract {\r\n    struct Document {\r\n        address owner;             // Address of the document owner (student)\r\n        address universityAddress; // Address of the university that can verify the document\r\n        string ipfsHash;          // IPFS hash of the document\r\n        bool verified;            // Indicates if the document is verified by the university\r\n    }\r\n\r\n    mapping(string => mapping(address => bool)) private  AccessCompanyMapping;   //document->companies[]\r\n    mapping(address => bool) private  universities;      //valid or invalid university list\r\n    mapping(address => bool) private  companies;         //valid or invalid companies list\r\n    mapping(string => Document) private  documentsById; // Mapping to store documents by their unique Id\r\n    mapping(address => string[]) private universityDocumentList; // mapping of university-> document[] list//\r\n    mapping(address => string[]) private studentDocumentList; // mapping of student-> document[] list//\r\n    \r\n\r\n    address[] private  universityAddresses; // Separate array to store university addresses\r\n    address[] private  companyAddresses; // Separate array to store company addresses\r\n   \r\n\r\n\r\n    address private  contractOwner;     //contract owner\r\n\r\n    event LogPrint(string  message);   //success log \r\n    event LogAddressPrint(address message); \r\n    constructor() {\r\n        contractOwner = msg.sender; // Set the contract owner to the address that deploys the contract\r\n    }\r\n\r\n    modifier onlyOwner() {\r\n        require(msg.sender == contractOwner, \"Only the contract owner can perform this action\");\r\n        _;\r\n    }\r\n\r\n    function getOwner() public view returns(address){\r\n        return contractOwner;\r\n    }\r\n\r\n\r\n    function uploadDocument(string memory uniqueId,string memory ipfsHash, address universityAddress) public {  //call by student or university\r\n        require(bytes(ipfsHash).length > 0, \"IPFS hash cannot be empty\");\r\n        require(bytes(uniqueId).length > 0, \"uniqueId cannot be empty\");\r\n        require(documentsById[uniqueId].owner== address(0), \"Document already exist\");\r\n        require(universities[universityAddress], \"Only Registered university is allowed\");\r\n             \r\n\r\n        Document memory document = Document({\r\n            owner: msg.sender,\r\n            universityAddress: universityAddress,\r\n            ipfsHash: ipfsHash,\r\n            verified: false\r\n        });\r\n\r\n        documentsById[uniqueId] = document; // Store the document by its id // \r\n        universityDocumentList[universityAddress].push(uniqueId); //add new id in university document list\r\n        studentDocumentList[msg.sender].push(uniqueId);  //add new id in student document list\r\n         emit LogPrint(\"Document uploaded successfully\");\r\n    }\r\n\r\n    function uploadDocumentnVerify(string[][] memory data,address[] memory studentAddressList,uint  count) public { //only by university//\r\n      require(universities[msg.sender], \"Only Registered university is allowed\");\r\n        require(data.length >= count || studentAddressList.length >= count , \"Count exceeds array length\");\r\n       require(data.length==studentAddressList.length,\"elements mismatch\");\r\n       for(uint i=0;i<count;i++){\r\n        require(data[i].length == 2, \"Each data row should have 2 elements\");\r\n\r\n        Document memory document = Document({\r\n            owner: studentAddressList[i],\r\n            universityAddress:  msg.sender,\r\n            ipfsHash: data[i][1],\r\n            verified: true\r\n        });\r\n        string memory documentId=data[i][0];\r\n        documentsById[documentId] = document; // Store the document by its id // \r\n        universityDocumentList[msg.sender].push(documentId); //add new id in university document list\r\n        studentDocumentList[document.owner].push(documentId);  //add new id in student document list\r\n        \r\n\r\n        emit LogAddressPrint(document.owner); // Emitting the event with the concatenated message\r\n    }\r\n    }\r\n\r\n    function verifyDocument(string memory uniqueId,string memory oldipfsHash,string memory newipfsHash) public  { //only call by university\r\n        require(bytes(uniqueId).length > 0, \"uniqueId cannot be empty\");\r\n        require(universities[msg.sender], \"Only valid universities can verify documents\");\r\n        require(bytes(oldipfsHash).length > 0, \"old IPFS hash cannot be empty\");\r\n        require(bytes(newipfsHash).length > 0, \"new IPFS hash cannot be empty\");\r\n        require(documentsById[uniqueId].owner!= address(0), \"Document does not exist\");\r\n        Document storage document = documentsById[uniqueId];\r\n        require(document.universityAddress==msg.sender, \"This university is not authorized to verify this student's document\");\r\n        require(keccak256(abi.encodePacked(document.ipfsHash)) == keccak256(abi.encodePacked(oldipfsHash)),\"Fake document\");\r\n        require(!document.verified, \"Document is already verified\");\r\n        document.ipfsHash=newipfsHash;\r\n        document.verified = true;\r\n         emit LogPrint(\"Document verified successfully\");\r\n        \r\n    }\r\n    function unverifyDocument(string memory uniqueId,string memory newipfsHash) public  { //only call by university\r\n        require(bytes(uniqueId).length > 0, \"uniqueId cannot be empty\");\r\n        require(universities[msg.sender], \"Only valid universities can unverify documents\");\r\n        require(bytes(newipfsHash).length > 0, \"new IPFS hash cannot be empty\");\r\n        require(documentsById[uniqueId].owner!= address(0), \"Document does not exist\");\r\n        Document storage document = documentsById[uniqueId];\r\n        require(document.universityAddress==msg.sender, \"This university is not authorized to unverify this student's document\");\r\n        require(keccak256(abi.encodePacked(document.ipfsHash)) == keccak256(abi.encodePacked(newipfsHash)),\"Fake document\");\r\n        require(document.verified, \"Document is already unverified\");\r\n        \r\n        document.verified = false;\r\n         emit LogPrint(\"Document unverified successfully\");\r\n    }\r\n    \r\n\r\n    function includeCompany(string memory uniqueId,address companyAddress) public   { // can be call by student or university\r\n        require(bytes(uniqueId).length > 0, \"uniqueId cannot be empty\");\r\n        require(companies[companyAddress],\"Require Valid Company\");\r\n        require(documentsById[uniqueId].owner!= address(0), \"Document does not exist\");\r\n     \r\n        require(!AccessCompanyMapping[uniqueId][companyAddress], \"Company is already included\");\r\n     \r\n        Document storage document = documentsById[uniqueId];\r\n        require(document.owner==msg.sender||document.universityAddress==msg.sender,\"Only Document Owner or University can perform this action\");\r\n       \r\n        AccessCompanyMapping[uniqueId][companyAddress] = true;\r\n         emit LogPrint(\"company included successfully\");\r\n    }\r\n\r\n    function removeCompany(string memory uniqueId,address companyAddress) public {  // can be call by student or university\r\n        require(bytes(uniqueId).length > 0, \"uniqueId cannot be empty\");\r\n        require(companies[companyAddress],\"Require Valid Company\");\r\n        require(documentsById[uniqueId].owner!= address(0), \"Document does not exist\");\r\n     \r\n        require( AccessCompanyMapping[uniqueId][companyAddress], \"Company is not included by the student or university\");\r\n      \r\n        Document storage document = documentsById[uniqueId];\r\n        require(document.owner==msg.sender||document.universityAddress==msg.sender,\"Only Document Owner or university can perform this action\");\r\n       \r\n        AccessCompanyMapping[uniqueId][companyAddress] = false;\r\n         emit LogPrint(\"company removed successfully\");\r\n    }\r\n\r\n    function checkStatus(string memory uniqueId) public view  returns (string[2] memory) { // can be call by student or university or comapny with mapping with student or university\r\n        require(bytes(uniqueId).length > 0, \"uniqueId cannot be empty\");\r\n        require(documentsById[uniqueId].owner!= address(0), \"Document does not exist\");\r\n        \r\n        Document storage document = documentsById[uniqueId];\r\n        \r\n        require(AccessCompanyMapping[uniqueId][msg.sender] ||document.owner==msg.sender||document.universityAddress==msg.sender,\"This company is not authorized by the student or university\" );\r\n        if(document.verified){\r\n        return [\"true\",document.ipfsHash];\r\n        }else{\r\n        return [\"false\",document.ipfsHash];\r\n  \r\n        }\r\n        \r\n    }\r\n    function checknverify(string memory uniqueId,string memory newipfsHash) public view  returns (bool) { // can be call by student or university or comapny with mapping with student or university\r\n        require(bytes(newipfsHash).length > 0, \"IPFS hash cannot be empty\");\r\n        require(bytes(uniqueId).length > 0, \"uniqueId cannot be empty\");\r\n        require(documentsById[uniqueId].owner!= address(0), \"Document does not exist\");\r\n        \r\n        Document storage document = documentsById[uniqueId];\r\n        \r\n        require(AccessCompanyMapping[uniqueId][msg.sender] ||document.owner==msg.sender||document.universityAddress==msg.sender,\"This company is not authorized by the student or university\" );\r\n        require(keccak256(abi.encodePacked(document.ipfsHash)) == keccak256(abi.encodePacked(newipfsHash)),\"Fake document\");\r\n        return document.verified;\r\n    }\r\n\r\n    function registerCompany() public {  //call by company//no check//\r\n        companies[msg.sender]=false; \r\n        companyAddresses.push(msg.sender);         //creates a new company/\r\n         emit LogPrint(\"company registered successfully\");\r\n    }\r\n\r\n    function verifyCompany(address companyAddress) public onlyOwner{\r\n        require( !companies[companyAddress],\"company alredy verified\");\r\n         companies[companyAddress] = true; \r\n          emit LogPrint(\"company verified successfully\");\r\n    }\r\n\r\n    function unverifyCompany(address companyAddress) public onlyOwner{\r\n        require( companies[companyAddress],\"company alredy unverified\");\r\n         companies[companyAddress] = false; \r\n          emit LogPrint(\"company un-verified successfully\");\r\n         \r\n    }\r\n    \r\n    \r\n    function addUniversity() public    //no check//\r\n     {\r\n        universities[msg.sender] = false; \r\n        universityAddresses.push(msg.sender);\r\n         emit LogPrint(\"university added successfully\");\r\n    }\r\n\r\n    function verifyUniversity(address universityAddress) public onlyOwner{ //onlyOwner   \r\n        require( !universities[universityAddress],\"university already verified\");\r\n        universities[universityAddress] = true; \r\n         emit LogPrint(\"university verified successfully\");\r\n    }\r\n\r\n    function removeUniversity(address universityAddress) public onlyOwner{ //onlyOwner  \r\n        require( universities[universityAddress],\"university already unverified\");\r\n        universities[universityAddress] = false; \r\n         emit LogPrint(\"university removed successfully\");\r\n    }\r\n\r\n\r\n    // Function to get all university addresses\r\n    function getAllUniversityAddresses() public view returns (address[] memory) {\r\n        return universityAddresses;\r\n    }\r\n\r\n    // Function to get all company addresses\r\n    function getAllCompanyAddresses() public view returns (address[] memory) {\r\n        return companyAddresses;\r\n    }\r\n\r\n    function checkUniversity(address universityAddress) public view returns(bool){\r\n        return  universities[universityAddress];\r\n    }\r\n\r\n    function checkCompany(address companyAddress) public view returns(bool){\r\n        return  companies[companyAddress];\r\n    }\r\n\r\n    function getUniversityDocumentList() public view returns(string[] memory){\r\n    require( universities[msg.sender],\"require valid university\");\r\n       return universityDocumentList[msg.sender];\r\n    }\r\n    \r\n    function getStudentDocumentList() public view returns(string[] memory){\r\n       return studentDocumentList[msg.sender];\r\n    }\r\n\r\n\r\n}",
  "sourcePath": "E:\\Digital_Document_Verification_using_Blockchain_and_IPFS\\main\\SmartContract\\contracts\\Contract.sol",
  "compiler": {
    "name": "solc",
    "version": "0.8.13+commit.abaa5c0e.Emscripten.clang"
  },
  "schemaVersion": "3.4.16",
  "updatedAt": "2023-12-08T14:11:53.835Z",
  "networkType": "ethereum",
  "devdoc": {
    "kind": "dev",
    "methods": {},
    "version": 1
  },
  "userdoc": {
    "kind": "user",
    "methods": {},
    "version": 1
  }
}