{
  "contractName": "Contract",
  "abi": [
    {
      "inputs": [],
      "stateMutability": "nonpayable",
      "type": "constructor"
    },
    {
      "anonymous": false,
      "inputs": [
        {
          "indexed": false,
          "internalType": "string",
          "name": "message",
          "type": "string"
        }
      ],
      "name": "LogPrint",
      "type": "event"
    },
    {
      "inputs": [],
      "name": "getOwner",
      "outputs": [
        {
          "internalType": "address",
          "name": "",
          "type": "address"
        }
      ],
      "stateMutability": "view",
      "type": "function",
      "constant": true
    },
    {
      "inputs": [
        {
          "internalType": "string",
          "name": "uniqueId",
          "type": "string"
        },
        {
          "internalType": "string",
          "name": "ipfsHash",
          "type": "string"
        },
        {
          "internalType": "address",
          "name": "universityAddress",
          "type": "address"
        }
      ],
      "name": "uploadDocument",
      "outputs": [],
      "stateMutability": "nonpayable",
      "type": "function"
    },
    {
      "inputs": [
        {
          "internalType": "string",
          "name": "uniqueId",
          "type": "string"
        },
        {
          "internalType": "string",
          "name": "oldipfsHash",
          "type": "string"
        },
        {
          "internalType": "string",
          "name": "newipfsHash",
          "type": "string"
        }
      ],
      "name": "verifyDocument",
      "outputs": [],
      "stateMutability": "nonpayable",
      "type": "function"
    },
    {
      "inputs": [
        {
          "internalType": "string",
          "name": "uniqueId",
          "type": "string"
        },
        {
          "internalType": "string",
          "name": "newipfsHash",
          "type": "string"
        }
      ],
      "name": "unverifyDocument",
      "outputs": [],
      "stateMutability": "nonpayable",
      "type": "function"
    },
    {
      "inputs": [
        {
          "internalType": "string",
          "name": "uniqueId",
          "type": "string"
        },
        {
          "internalType": "address",
          "name": "companyAddress",
          "type": "address"
        }
      ],
      "name": "includeCompany",
      "outputs": [],
      "stateMutability": "nonpayable",
      "type": "function"
    },
    {
      "inputs": [
        {
          "internalType": "string",
          "name": "uniqueId",
          "type": "string"
        },
        {
          "internalType": "address",
          "name": "companyAddress",
          "type": "address"
        }
      ],
      "name": "removeCompany",
      "outputs": [],
      "stateMutability": "nonpayable",
      "type": "function"
    },
    {
      "inputs": [
        {
          "internalType": "string",
          "name": "uniqueId",
          "type": "string"
        }
      ],
      "name": "checkStatus",
      "outputs": [
        {
          "internalType": "string[2]",
          "name": "",
          "type": "string[2]"
        }
      ],
      "stateMutability": "view",
      "type": "function",
      "constant": true
    },
    {
      "inputs": [
        {
          "internalType": "string",
          "name": "uniqueId",
          "type": "string"
        },
        {
          "internalType": "string",
          "name": "newipfsHash",
          "type": "string"
        }
      ],
      "name": "checknverify",
      "outputs": [
        {
          "internalType": "bool",
          "name": "",
          "type": "bool"
        }
      ],
      "stateMutability": "view",
      "type": "function",
      "constant": true
    },
    {
      "inputs": [],
      "name": "registerCompany",
      "outputs": [],
      "stateMutability": "nonpayable",
      "type": "function"
    },
    {
      "inputs": [
        {
          "internalType": "address",
          "name": "companyAddress",
          "type": "address"
        }
      ],
      "name": "verifyCompany",
      "outputs": [],
      "stateMutability": "nonpayable",
      "type": "function"
    },
    {
      "inputs": [
        {
          "internalType": "address",
          "name": "companyAddress",
          "type": "address"
        }
      ],
      "name": "unverifyCompany",
      "outputs": [],
      "stateMutability": "nonpayable",
      "type": "function"
    },
    {
      "inputs": [],
      "name": "addUniversity",
      "outputs": [],
      "stateMutability": "nonpayable",
      "type": "function"
    },
    {
      "inputs": [
        {
          "internalType": "address",
          "name": "universityAddress",
          "type": "address"
        }
      ],
      "name": "verifyUniversity",
      "outputs": [],
      "stateMutability": "nonpayable",
      "type": "function"
    },
    {
      "inputs": [
        {
          "internalType": "address",
          "name": "universityAddress",
          "type": "address"
        }
      ],
      "name": "removeUniversity",
      "outputs": [],
      "stateMutability": "nonpayable",
      "type": "function"
    },
    {
      "inputs": [],
      "name": "getAllUniversityAddresses",
      "outputs": [
        {
          "internalType": "address[]",
          "name": "",
          "type": "address[]"
        }
      ],
      "stateMutability": "view",
      "type": "function",
      "constant": true
    },
    {
      "inputs": [],
      "name": "getAllCompanyAddresses",
      "outputs": [
        {
          "internalType": "address[]",
          "name": "",
          "type": "address[]"
        }
      ],
      "stateMutability": "view",
      "type": "function",
      "constant": true
    },
    {
      "inputs": [
        {
          "internalType": "address",
          "name": "universityAddress",
          "type": "address"
        }
      ],
      "name": "checkUniversity",
      "outputs": [
        {
          "internalType": "bool",
          "name": "",
          "type": "bool"
        }
      ],
      "stateMutability": "view",
      "type": "function",
      "constant": true
    },
    {
      "inputs": [
        {
          "internalType": "address",
          "name": "companyAddress",
          "type": "address"
        }
      ],
      "name": "checkCompany",
      "outputs": [
        {
          "internalType": "bool",
          "name": "",
          "type": "bool"
        }
      ],
      "stateMutability": "view",
      "type": "function",
      "constant": true
    },
    {
      "inputs": [],
      "name": "getUniversityDocumentList",
      "outputs": [
        {
          "internalType": "string[]",
          "name": "",
          "type": "string[]"
        }
      ],
      "stateMutability": "view",
      "type": "function",
      "constant": true
    },
    {
      "inputs": [],
      "name": "getStudentDocumentList",
      "outputs": [
        {
          "internalType": "string[]",
          "name": "",
          "type": "string[]"
        }
      ],
      "stateMutability": "view",
      "type": "function",
      "constant": true
    }
  ],
  "bytecode": "0x608060405234801561001057600080fd5b5033600860006101000a81548173ffffffffffffffffffffffffffffffffffffffff021916908373ffffffffffffffffffffffffffffffffffffffff1602179055506147b9806100616000396000f3fe608060405234801561001057600080fd5b506004361061012c5760003560e01c8063893d20e8116100ad578063cd89b93611610071578063cd89b936146102f5578063db5e842b14610313578063e1a3e6471461032f578063ec6614e21461035f578063f592146d1461037b5761012c565b8063893d20e81461024d5780638b999def1461026b578063ab9db63f14610289578063b77553b6146102a7578063b9b3bb36146102d75761012c565b806344b0a995116100f457806344b0a995146101bf5780635526e6e4146101ef5780635cba100d1461020b5780637cad110714610227578063877af465146102315761012c565b806313a65808146101315780631fe5994b1461013b57806328f54b2f146101575780632bbfef89146101735780633308a90f1461018f575b600080fd5b610139610397565b005b61015560048036038101906101509190612ec4565b610489565b005b610171600480360381019061016c9190612f4f565b6108bb565b005b61018d60048036038101906101889190612f7c565b610a67565b005b6101a960048036038101906101a49190612f4f565b610e4c565b6040516101b69190612ff3565b60405180910390f35b6101d960048036038101906101d4919061300e565b610ea2565b6040516101e69190613195565b60405180910390f35b610209600480360381019061020491906131b7565b6112f0565b005b6102256004803603810190610220919061325e565b611700565b005b61022f611ab1565b005b61024b60048036038101906102469190612f4f565b611ba3565b005b610255611d4f565b60405161026291906132e5565b60405180910390f35b610273611d79565b60405161028091906133be565b60405180910390f35b610291611e07565b60405161029e919061348e565b60405180910390f35b6102c160048036038101906102bc9190612f4f565b611f1d565b6040516102ce9190612ff3565b60405180910390f35b6102df611f73565b6040516102ec91906133be565b60405180910390f35b6102fd612001565b60405161030a919061348e565b60405180910390f35b61032d60048036038101906103289190612f7c565b6121a3565b005b6103496004803603810190610344919061325e565b612586565b6040516103569190612ff3565b60405180910390f35b61037960048036038101906103749190612f4f565b6128e9565b005b61039560048036038101906103909190612f4f565b612a95565b005b6000600160003373ffffffffffffffffffffffffffffffffffffffff1673ffffffffffffffffffffffffffffffffffffffff16815260200190815260200160002060006101000a81548160ff0219169083151502179055506006339080600181540180825580915050600190039060005260206000200160009091909190916101000a81548173ffffffffffffffffffffffffffffffffffffffff021916908373ffffffffffffffffffffffffffffffffffffffff1602179055507f894570b4cbd952cb1af656ba8df9c5f7785370e07bdc03173d6290b8feb6e23460405161047f9061350d565b60405180910390a1565b60008251116104cd576040517f08c379a00000000000000000000000000000000000000000000000000000000081526004016104c490613579565b60405180910390fd5b6000835111610511576040517f08c379a0000000000000000000000000000000000000000000000000000000008152600401610508906135e5565b60405180910390fd5b600073ffffffffffffffffffffffffffffffffffffffff166003846040516105399190613641565b908152602001604051809103902060000160009054906101000a900473ffffffffffffffffffffffffffffffffffffffff1673ffffffffffffffffffffffffffffffffffffffff16146105c1576040517f08c379a00000000000000000000000000000000000000000000000000000000081526004016105b8906136a4565b60405180910390fd5b600160008273ffffffffffffffffffffffffffffffffffffffff1673ffffffffffffffffffffffffffffffffffffffff16815260200190815260200160002060009054906101000a900460ff1661064d576040517f08c379a000000000000000000000000000000000000000000000000000000000815260040161064490613736565b60405180910390fd5b600060405180608001604052803373ffffffffffffffffffffffffffffffffffffffff1681526020018373ffffffffffffffffffffffffffffffffffffffff168152602001848152602001600015158152509050806003856040516106b29190613641565b908152602001604051809103902060008201518160000160006101000a81548173ffffffffffffffffffffffffffffffffffffffff021916908373ffffffffffffffffffffffffffffffffffffffff16021790555060208201518160010160006101000a81548173ffffffffffffffffffffffffffffffffffffffff021916908373ffffffffffffffffffffffffffffffffffffffff160217905550604082015181600201908051906020019061076a929190612c42565b5060608201518160030160006101000a81548160ff021916908315150217905550905050600460008373ffffffffffffffffffffffffffffffffffffffff1673ffffffffffffffffffffffffffffffffffffffff16815260200190815260200160002084908060018154018082558091505060019003906000526020600020016000909190919091509080519060200190610806929190612c42565b50600560003373ffffffffffffffffffffffffffffffffffffffff1673ffffffffffffffffffffffffffffffffffffffff1681526020019081526020016000208490806001815401808255809150506001900390600052602060002001600090919091909150908051906020019061087f929190612c42565b507f894570b4cbd952cb1af656ba8df9c5f7785370e07bdc03173d6290b8feb6e2346040516108ad906137a2565b60405180910390a150505050565b600860009054906101000a900473ffffffffffffffffffffffffffffffffffffffff1673ffffffffffffffffffffffffffffffffffffffff163373ffffffffffffffffffffffffffffffffffffffff161461094b576040517f08c379a000000000000000000000000000000000000000000000000000000000815260040161094290613834565b60405180910390fd5b600160008273ffffffffffffffffffffffffffffffffffffffff1673ffffffffffffffffffffffffffffffffffffffff16815260200190815260200160002060009054906101000a900460ff166109d7576040517f08c379a00000000000000000000000000000000000000000000000000000000081526004016109ce906138a0565b60405180910390fd5b6000600160008373ffffffffffffffffffffffffffffffffffffffff1673ffffffffffffffffffffffffffffffffffffffff16815260200190815260200160002060006101000a81548160ff0219169083151502179055507f894570b4cbd952cb1af656ba8df9c5f7785370e07bdc03173d6290b8feb6e234604051610a5c9061390c565b60405180910390a150565b6000825111610aab576040517f08c379a0000000000000000000000000000000000000000000000000000000008152600401610aa2906135e5565b60405180910390fd5b600260008273ffffffffffffffffffffffffffffffffffffffff1673ffffffffffffffffffffffffffffffffffffffff16815260200190815260200160002060009054906101000a900460ff16610b37576040517f08c379a0000000000000000000000000000000000000000000000000000000008152600401610b2e90613978565b60405180910390fd5b600073ffffffffffffffffffffffffffffffffffffffff16600383604051610b5f9190613641565b908152602001604051809103902060000160009054906101000a900473ffffffffffffffffffffffffffffffffffffffff1673ffffffffffffffffffffffffffffffffffffffff1603610be7576040517f08c379a0000000000000000000000000000000000000000000000000000000008152600401610bde906139e4565b60405180910390fd5b600082604051610bf79190613641565b908152602001604051809103902060008273ffffffffffffffffffffffffffffffffffffffff1673ffffffffffffffffffffffffffffffffffffffff16815260200190815260200160002060009054906101000a900460ff1615610c90576040517f08c379a0000000000000000000000000000000000000000000000000000000008152600401610c8790613a50565b60405180910390fd5b6000600383604051610ca29190613641565b908152602001604051809103902090503373ffffffffffffffffffffffffffffffffffffffff168160000160009054906101000a900473ffffffffffffffffffffffffffffffffffffffff1673ffffffffffffffffffffffffffffffffffffffff161480610d5f57503373ffffffffffffffffffffffffffffffffffffffff168160010160009054906101000a900473ffffffffffffffffffffffffffffffffffffffff1673ffffffffffffffffffffffffffffffffffffffff16145b610d9e576040517f08c379a0000000000000000000000000000000000000000000000000000000008152600401610d9590613ae2565b60405180910390fd5b6001600084604051610db09190613641565b908152602001604051809103902060008473ffffffffffffffffffffffffffffffffffffffff1673ffffffffffffffffffffffffffffffffffffffff16815260200190815260200160002060006101000a81548160ff0219169083151502179055507f894570b4cbd952cb1af656ba8df9c5f7785370e07bdc03173d6290b8feb6e234604051610e3f90613b4e565b60405180910390a1505050565b6000600160008373ffffffffffffffffffffffffffffffffffffffff1673ffffffffffffffffffffffffffffffffffffffff16815260200190815260200160002060009054906101000a900460ff169050919050565b610eaa612cc8565b6000825111610eee576040517f08c379a0000000000000000000000000000000000000000000000000000000008152600401610ee5906135e5565b60405180910390fd5b600073ffffffffffffffffffffffffffffffffffffffff16600383604051610f169190613641565b908152602001604051809103902060000160009054906101000a900473ffffffffffffffffffffffffffffffffffffffff1673ffffffffffffffffffffffffffffffffffffffff1603610f9e576040517f08c379a0000000000000000000000000000000000000000000000000000000008152600401610f95906139e4565b60405180910390fd5b6000600383604051610fb09190613641565b90815260200160405180910390209050600083604051610fd09190613641565b908152602001604051809103902060003373ffffffffffffffffffffffffffffffffffffffff1673ffffffffffffffffffffffffffffffffffffffff16815260200190815260200160002060009054906101000a900460ff168061108357503373ffffffffffffffffffffffffffffffffffffffff168160000160009054906101000a900473ffffffffffffffffffffffffffffffffffffffff1673ffffffffffffffffffffffffffffffffffffffff16145b806110dd57503373ffffffffffffffffffffffffffffffffffffffff168160010160009054906101000a900473ffffffffffffffffffffffffffffffffffffffff1673ffffffffffffffffffffffffffffffffffffffff16145b61111c576040517f08c379a000000000000000000000000000000000000000000000000000000000815260040161111390613be0565b60405180910390fd5b8060030160009054906101000a900460ff16156112115760405180604001604052806040518060400160405280600481526020017f7472756500000000000000000000000000000000000000000000000000000000815250815260200182600201805461118890613c2f565b80601f01602080910402602001604051908101604052809291908181526020018280546111b490613c2f565b80156112015780601f106111d657610100808354040283529160200191611201565b820191906000526020600020905b8154815290600101906020018083116111e457829003601f168201915b50505050508152509150506112eb565b60405180604001604052806040518060400160405280600581526020017f66616c7365000000000000000000000000000000000000000000000000000000815250815260200182600201805461126690613c2f565b80601f016020809104026020016040519081016040528092919081815260200182805461129290613c2f565b80156112df5780601f106112b4576101008083540402835291602001916112df565b820191906000526020600020905b8154815290600101906020018083116112c257829003601f168201915b50505050508152509150505b919050565b6000835111611334576040517f08c379a000000000000000000000000000000000000000000000000000000000815260040161132b906135e5565b60405180910390fd5b600160003373ffffffffffffffffffffffffffffffffffffffff1673ffffffffffffffffffffffffffffffffffffffff16815260200190815260200160002060009054906101000a900460ff166113c0576040517f08c379a00000000000000000000000000000000000000000000000000000000081526004016113b790613cd2565b60405180910390fd5b6000825111611404576040517f08c379a00000000000000000000000000000000000000000000000000000000081526004016113fb90613d3e565b60405180910390fd5b6000815111611448576040517f08c379a000000000000000000000000000000000000000000000000000000000815260040161143f90613daa565b60405180910390fd5b600073ffffffffffffffffffffffffffffffffffffffff166003846040516114709190613641565b908152602001604051809103902060000160009054906101000a900473ffffffffffffffffffffffffffffffffffffffff1673ffffffffffffffffffffffffffffffffffffffff16036114f8576040517f08c379a00000000000000000000000000000000000000000000000000000000081526004016114ef906139e4565b60405180910390fd5b600060038460405161150a9190613641565b908152602001604051809103902090503373ffffffffffffffffffffffffffffffffffffffff168160010160009054906101000a900473ffffffffffffffffffffffffffffffffffffffff1673ffffffffffffffffffffffffffffffffffffffff16146115ac576040517f08c379a00000000000000000000000000000000000000000000000000000000081526004016115a390613e62565b60405180910390fd5b826040516020016115bd9190613641565b60405160208183030381529060405280519060200120816002016040516020016115e79190613f16565b604051602081830303815290604052805190602001201461163d576040517f08c379a000000000000000000000000000000000000000000000000000000000815260040161163490613f79565b60405180910390fd5b8060030160009054906101000a900460ff161561168f576040517f08c379a000000000000000000000000000000000000000000000000000000000815260040161168690613fe5565b60405180910390fd5b818160020190805190602001906116a7929190612c42565b5060018160030160006101000a81548160ff0219169083151502179055507f894570b4cbd952cb1af656ba8df9c5f7785370e07bdc03173d6290b8feb6e2346040516116f290614051565b60405180910390a150505050565b6000825111611744576040517f08c379a000000000000000000000000000000000000000000000000000000000815260040161173b906135e5565b60405180910390fd5b600160003373ffffffffffffffffffffffffffffffffffffffff1673ffffffffffffffffffffffffffffffffffffffff16815260200190815260200160002060009054906101000a900460ff166117d0576040517f08c379a00000000000000000000000000000000000000000000000000000000081526004016117c7906140e3565b60405180910390fd5b6000815111611814576040517f08c379a000000000000000000000000000000000000000000000000000000000815260040161180b90613daa565b60405180910390fd5b600073ffffffffffffffffffffffffffffffffffffffff1660038360405161183c9190613641565b908152602001604051809103902060000160009054906101000a900473ffffffffffffffffffffffffffffffffffffffff1673ffffffffffffffffffffffffffffffffffffffff16036118c4576040517f08c379a00000000000000000000000000000000000000000000000000000000081526004016118bb906139e4565b60405180910390fd5b60006003836040516118d69190613641565b908152602001604051809103902090503373ffffffffffffffffffffffffffffffffffffffff168160010160009054906101000a900473ffffffffffffffffffffffffffffffffffffffff1673ffffffffffffffffffffffffffffffffffffffff1614611978576040517f08c379a000000000000000000000000000000000000000000000000000000000815260040161196f9061419b565b60405180910390fd5b816040516020016119899190613641565b60405160208183030381529060405280519060200120816002016040516020016119b39190613f16565b6040516020818303038152906040528051906020012014611a09576040517f08c379a0000000000000000000000000000000000000000000000000000000008152600401611a0090613f79565b60405180910390fd5b8060030160009054906101000a900460ff16611a5a576040517f08c379a0000000000000000000000000000000000000000000000000000000008152600401611a5190614207565b60405180910390fd5b60008160030160006101000a81548160ff0219169083151502179055507f894570b4cbd952cb1af656ba8df9c5f7785370e07bdc03173d6290b8feb6e234604051611aa490614273565b60405180910390a1505050565b6000600260003373ffffffffffffffffffffffffffffffffffffffff1673ffffffffffffffffffffffffffffffffffffffff16815260200190815260200160002060006101000a81548160ff0219169083151502179055506007339080600181540180825580915050600190039060005260206000200160009091909190916101000a81548173ffffffffffffffffffffffffffffffffffffffff021916908373ffffffffffffffffffffffffffffffffffffffff1602179055507f894570b4cbd952cb1af656ba8df9c5f7785370e07bdc03173d6290b8feb6e234604051611b99906142df565b60405180910390a1565b600860009054906101000a900473ffffffffffffffffffffffffffffffffffffffff1673ffffffffffffffffffffffffffffffffffffffff163373ffffffffffffffffffffffffffffffffffffffff1614611c33576040517f08c379a0000000000000000000000000000000000000000000000000000000008152600401611c2a90613834565b60405180910390fd5b600160008273ffffffffffffffffffffffffffffffffffffffff1673ffffffffffffffffffffffffffffffffffffffff16815260200190815260200160002060009054906101000a900460ff1615611cc0576040517f08c379a0000000000000000000000000000000000000000000000000000000008152600401611cb79061434b565b60405180910390fd5b60018060008373ffffffffffffffffffffffffffffffffffffffff1673ffffffffffffffffffffffffffffffffffffffff16815260200190815260200160002060006101000a81548160ff0219169083151502179055507f894570b4cbd952cb1af656ba8df9c5f7785370e07bdc03173d6290b8feb6e234604051611d44906143b7565b60405180910390a150565b6000600860009054906101000a900473ffffffffffffffffffffffffffffffffffffffff16905090565b60606007805480602002602001604051908101604052809291908181526020018280548015611dfd57602002820191906000526020600020905b8160009054906101000a900473ffffffffffffffffffffffffffffffffffffffff1673ffffffffffffffffffffffffffffffffffffffff1681526020019060010190808311611db3575b5050505050905090565b6060600560003373ffffffffffffffffffffffffffffffffffffffff1673ffffffffffffffffffffffffffffffffffffffff168152602001908152602001600020805480602002602001604051908101604052809291908181526020016000905b82821015611f14578382906000526020600020018054611e8790613c2f565b80601f0160208091040260200160405190810160405280929190818152602001828054611eb390613c2f565b8015611f005780601f10611ed557610100808354040283529160200191611f00565b820191906000526020600020905b815481529060010190602001808311611ee357829003601f168201915b505050505081526020019060010190611e68565b50505050905090565b6000600260008373ffffffffffffffffffffffffffffffffffffffff1673ffffffffffffffffffffffffffffffffffffffff16815260200190815260200160002060009054906101000a900460ff169050919050565b60606006805480602002602001604051908101604052809291908181526020018280548015611ff757602002820191906000526020600020905b8160009054906101000a900473ffffffffffffffffffffffffffffffffffffffff1673ffffffffffffffffffffffffffffffffffffffff1681526020019060010190808311611fad575b5050505050905090565b6060600160003373ffffffffffffffffffffffffffffffffffffffff1673ffffffffffffffffffffffffffffffffffffffff16815260200190815260200160002060009054906101000a900460ff1661208f576040517f08c379a000000000000000000000000000000000000000000000000000000000815260040161208690614423565b60405180910390fd5b600460003373ffffffffffffffffffffffffffffffffffffffff1673ffffffffffffffffffffffffffffffffffffffff168152602001908152602001600020805480602002602001604051908101604052809291908181526020016000905b8282101561219a57838290600052602060002001805461210d90613c2f565b80601f016020809104026020016040519081016040528092919081815260200182805461213990613c2f565b80156121865780601f1061215b57610100808354040283529160200191612186565b820191906000526020600020905b81548152906001019060200180831161216957829003601f168201915b5050505050815260200190600101906120ee565b50505050905090565b60008251116121e7576040517f08c379a00000000000000000000000000000000000000000000000000000000081526004016121de906135e5565b60405180910390fd5b600260008273ffffffffffffffffffffffffffffffffffffffff1673ffffffffffffffffffffffffffffffffffffffff16815260200190815260200160002060009054906101000a900460ff16612273576040517f08c379a000000000000000000000000000000000000000000000000000000000815260040161226a90613978565b60405180910390fd5b600073ffffffffffffffffffffffffffffffffffffffff1660038360405161229b9190613641565b908152602001604051809103902060000160009054906101000a900473ffffffffffffffffffffffffffffffffffffffff1673ffffffffffffffffffffffffffffffffffffffff1603612323576040517f08c379a000000000000000000000000000000000000000000000000000000000815260040161231a906139e4565b60405180910390fd5b6000826040516123339190613641565b908152602001604051809103902060008273ffffffffffffffffffffffffffffffffffffffff1673ffffffffffffffffffffffffffffffffffffffff16815260200190815260200160002060009054906101000a900460ff166123cb576040517f08c379a00000000000000000000000000000000000000000000000000000000081526004016123c2906144b5565b60405180910390fd5b60006003836040516123dd9190613641565b908152602001604051809103902090503373ffffffffffffffffffffffffffffffffffffffff168160000160009054906101000a900473ffffffffffffffffffffffffffffffffffffffff1673ffffffffffffffffffffffffffffffffffffffff16148061249a57503373ffffffffffffffffffffffffffffffffffffffff168160010160009054906101000a900473ffffffffffffffffffffffffffffffffffffffff1673ffffffffffffffffffffffffffffffffffffffff16145b6124d9576040517f08c379a00000000000000000000000000000000000000000000000000000000081526004016124d090614547565b60405180910390fd5b600080846040516124ea9190613641565b908152602001604051809103902060008473ffffffffffffffffffffffffffffffffffffffff1673ffffffffffffffffffffffffffffffffffffffff16815260200190815260200160002060006101000a81548160ff0219169083151502179055507f894570b4cbd952cb1af656ba8df9c5f7785370e07bdc03173d6290b8feb6e234604051612579906145b3565b60405180910390a1505050565b6000808251116125cb576040517f08c379a00000000000000000000000000000000000000000000000000000000081526004016125c290613579565b60405180910390fd5b600083511161260f576040517f08c379a0000000000000000000000000000000000000000000000000000000008152600401612606906135e5565b60405180910390fd5b600073ffffffffffffffffffffffffffffffffffffffff166003846040516126379190613641565b908152602001604051809103902060000160009054906101000a900473ffffffffffffffffffffffffffffffffffffffff1673ffffffffffffffffffffffffffffffffffffffff16036126bf576040517f08c379a00000000000000000000000000000000000000000000000000000000081526004016126b6906139e4565b60405180910390fd5b60006003846040516126d19190613641565b908152602001604051809103902090506000846040516126f19190613641565b908152602001604051809103902060003373ffffffffffffffffffffffffffffffffffffffff1673ffffffffffffffffffffffffffffffffffffffff16815260200190815260200160002060009054906101000a900460ff16806127a457503373ffffffffffffffffffffffffffffffffffffffff168160000160009054906101000a900473ffffffffffffffffffffffffffffffffffffffff1673ffffffffffffffffffffffffffffffffffffffff16145b806127fe57503373ffffffffffffffffffffffffffffffffffffffff168160010160009054906101000a900473ffffffffffffffffffffffffffffffffffffffff1673ffffffffffffffffffffffffffffffffffffffff16145b61283d576040517f08c379a000000000000000000000000000000000000000000000000000000000815260040161283490613be0565b60405180910390fd5b8260405160200161284e9190613641565b60405160208183030381529060405280519060200120816002016040516020016128789190613f16565b60405160208183030381529060405280519060200120146128ce576040517f08c379a00000000000000000000000000000000000000000000000000000000081526004016128c590613f79565b60405180910390fd5b8060030160009054906101000a900460ff1691505092915050565b600860009054906101000a900473ffffffffffffffffffffffffffffffffffffffff1673ffffffffffffffffffffffffffffffffffffffff163373ffffffffffffffffffffffffffffffffffffffff1614612979576040517f08c379a000000000000000000000000000000000000000000000000000000000815260040161297090613834565b60405180910390fd5b600260008273ffffffffffffffffffffffffffffffffffffffff1673ffffffffffffffffffffffffffffffffffffffff16815260200190815260200160002060009054906101000a900460ff16612a05576040517f08c379a00000000000000000000000000000000000000000000000000000000081526004016129fc9061461f565b60405180910390fd5b6000600260008373ffffffffffffffffffffffffffffffffffffffff1673ffffffffffffffffffffffffffffffffffffffff16815260200190815260200160002060006101000a81548160ff0219169083151502179055507f894570b4cbd952cb1af656ba8df9c5f7785370e07bdc03173d6290b8feb6e234604051612a8a9061468b565b60405180910390a150565b600860009054906101000a900473ffffffffffffffffffffffffffffffffffffffff1673ffffffffffffffffffffffffffffffffffffffff163373ffffffffffffffffffffffffffffffffffffffff1614612b25576040517f08c379a0000000000000000000000000000000000000000000000000000000008152600401612b1c90613834565b60405180910390fd5b600260008273ffffffffffffffffffffffffffffffffffffffff1673ffffffffffffffffffffffffffffffffffffffff16815260200190815260200160002060009054906101000a900460ff1615612bb2576040517f08c379a0000000000000000000000000000000000000000000000000000000008152600401612ba9906146f7565b60405180910390fd5b6001600260008373ffffffffffffffffffffffffffffffffffffffff1673ffffffffffffffffffffffffffffffffffffffff16815260200190815260200160002060006101000a81548160ff0219169083151502179055507f894570b4cbd952cb1af656ba8df9c5f7785370e07bdc03173d6290b8feb6e234604051612c3790614763565b60405180910390a150565b828054612c4e90613c2f565b90600052602060002090601f016020900481019282612c705760008555612cb7565b82601f10612c8957805160ff1916838001178555612cb7565b82800160010185558215612cb7579182015b82811115612cb6578251825591602001919060010190612c9b565b5b509050612cc49190612cef565b5090565b60405180604001604052806002905b6060815260200190600190039081612cd75790505090565b5b80821115612d08576000816000905550600101612cf0565b5090565b6000604051905090565b600080fd5b600080fd5b600080fd5b600080fd5b6000601f19601f8301169050919050565b7f4e487b7100000000000000000000000000000000000000000000000000000000600052604160045260246000fd5b612d7382612d2a565b810181811067ffffffffffffffff82111715612d9257612d91612d3b565b5b80604052505050565b6000612da5612d0c565b9050612db18282612d6a565b919050565b600067ffffffffffffffff821115612dd157612dd0612d3b565b5b612dda82612d2a565b9050602081019050919050565b82818337600083830152505050565b6000612e09612e0484612db6565b612d9b565b905082815260208101848484011115612e2557612e24612d25565b5b612e30848285612de7565b509392505050565b600082601f830112612e4d57612e4c612d20565b5b8135612e5d848260208601612df6565b91505092915050565b600073ffffffffffffffffffffffffffffffffffffffff82169050919050565b6000612e9182612e66565b9050919050565b612ea181612e86565b8114612eac57600080fd5b50565b600081359050612ebe81612e98565b92915050565b600080600060608486031215612edd57612edc612d16565b5b600084013567ffffffffffffffff811115612efb57612efa612d1b565b5b612f0786828701612e38565b935050602084013567ffffffffffffffff811115612f2857612f27612d1b565b5b612f3486828701612e38565b9250506040612f4586828701612eaf565b9150509250925092565b600060208284031215612f6557612f64612d16565b5b6000612f7384828501612eaf565b91505092915050565b60008060408385031215612f9357612f92612d16565b5b600083013567ffffffffffffffff811115612fb157612fb0612d1b565b5b612fbd85828601612e38565b9250506020612fce85828601612eaf565b9150509250929050565b60008115159050919050565b612fed81612fd8565b82525050565b60006020820190506130086000830184612fe4565b92915050565b60006020828403121561302457613023612d16565b5b600082013567ffffffffffffffff81111561304257613041612d1b565b5b61304e84828501612e38565b91505092915050565b600060029050919050565b600081905092915050565b6000819050919050565b600081519050919050565b600082825260208201905092915050565b60005b838110156130b1578082015181840152602081019050613096565b838111156130c0576000848401525b50505050565b60006130d182613077565b6130db8185613082565b93506130eb818560208601613093565b6130f481612d2a565b840191505092915050565b600061310b83836130c6565b905092915050565b6000602082019050919050565b600061312b82613057565b6131358185613062565b9350836020820285016131478561306d565b8060005b85811015613183578484038952815161316485826130ff565b945061316f83613113565b925060208a0199505060018101905061314b565b50829750879550505050505092915050565b600060208201905081810360008301526131af8184613120565b905092915050565b6000806000606084860312156131d0576131cf612d16565b5b600084013567ffffffffffffffff8111156131ee576131ed612d1b565b5b6131fa86828701612e38565b935050602084013567ffffffffffffffff81111561321b5761321a612d1b565b5b61322786828701612e38565b925050604084013567ffffffffffffffff81111561324857613247612d1b565b5b61325486828701612e38565b9150509250925092565b6000806040838503121561327557613274612d16565b5b600083013567ffffffffffffffff81111561329357613292612d1b565b5b61329f85828601612e38565b925050602083013567ffffffffffffffff8111156132c0576132bf612d1b565b5b6132cc85828601612e38565b9150509250929050565b6132df81612e86565b82525050565b60006020820190506132fa60008301846132d6565b92915050565b600081519050919050565b600082825260208201905092915050565b6000819050602082019050919050565b61333581612e86565b82525050565b6000613347838361332c565b60208301905092915050565b6000602082019050919050565b600061336b82613300565b613375818561330b565b93506133808361331c565b8060005b838110156133b1578151613398888261333b565b97506133a383613353565b925050600181019050613384565b5085935050505092915050565b600060208201905081810360008301526133d88184613360565b905092915050565b600081519050919050565b600082825260208201905092915050565b6000819050602082019050919050565b6000602082019050919050565b6000613424826133e0565b61342e81856133eb565b935083602082028501613440856133fc565b8060005b8581101561347c578484038952815161345d85826130ff565b94506134688361340c565b925060208a01995050600181019050613444565b50829750879550505050505092915050565b600060208201905081810360008301526134a88184613419565b905092915050565b600082825260208201905092915050565b7f756e6976657273697479206164646564207375636365737366756c6c79000000600082015250565b60006134f7601d836134b0565b9150613502826134c1565b602082019050919050565b60006020820190508181036000830152613526816134ea565b9050919050565b7f4950465320686173682063616e6e6f7420626520656d70747900000000000000600082015250565b60006135636019836134b0565b915061356e8261352d565b602082019050919050565b6000602082019050818103600083015261359281613556565b9050919050565b7f756e6971756549642063616e6e6f7420626520656d7074790000000000000000600082015250565b60006135cf6018836134b0565b91506135da82613599565b602082019050919050565b600060208201905081810360008301526135fe816135c2565b9050919050565b600081905092915050565b600061361b82613077565b6136258185613605565b9350613635818560208601613093565b80840191505092915050565b600061364d8284613610565b915081905092915050565b7f446f63756d656e7420616c726561647920657869737400000000000000000000600082015250565b600061368e6016836134b0565b915061369982613658565b602082019050919050565b600060208201905081810360008301526136bd81613681565b9050919050565b7f4f6e6c79205265676973746572656420756e697665727369747920697320616c60008201527f6c6f776564000000000000000000000000000000000000000000000000000000602082015250565b60006137206025836134b0565b915061372b826136c4565b604082019050919050565b6000602082019050818103600083015261374f81613713565b9050919050565b7f446f63756d656e742075706c6f61646564207375636365737366756c6c790000600082015250565b600061378c601e836134b0565b915061379782613756565b602082019050919050565b600060208201905081810360008301526137bb8161377f565b9050919050565b7f4f6e6c792074686520636f6e7472616374206f776e65722063616e207065726660008201527f6f726d207468697320616374696f6e0000000000000000000000000000000000602082015250565b600061381e602f836134b0565b9150613829826137c2565b604082019050919050565b6000602082019050818103600083015261384d81613811565b9050919050565b7f756e697665727369747920616c726561647920756e7665726966696564000000600082015250565b600061388a601d836134b0565b915061389582613854565b602082019050919050565b600060208201905081810360008301526138b98161387d565b9050919050565b7f756e69766572736974792072656d6f766564207375636365737366756c6c7900600082015250565b60006138f6601f836134b0565b9150613901826138c0565b602082019050919050565b60006020820190508181036000830152613925816138e9565b9050919050565b7f526571756972652056616c696420436f6d70616e790000000000000000000000600082015250565b60006139626015836134b0565b915061396d8261392c565b602082019050919050565b6000602082019050818103600083015261399181613955565b9050919050565b7f446f63756d656e7420646f6573206e6f74206578697374000000000000000000600082015250565b60006139ce6017836134b0565b91506139d982613998565b602082019050919050565b600060208201905081810360008301526139fd816139c1565b9050919050565b7f436f6d70616e7920697320616c726561647920696e636c756465640000000000600082015250565b6000613a3a601b836134b0565b9150613a4582613a04565b602082019050919050565b60006020820190508181036000830152613a6981613a2d565b9050919050565b7f4f6e6c7920446f63756d656e74204f776e6572206f7220556e6976657273697460008201527f792063616e20706572666f726d207468697320616374696f6e00000000000000602082015250565b6000613acc6039836134b0565b9150613ad782613a70565b604082019050919050565b60006020820190508181036000830152613afb81613abf565b9050919050565b7f636f6d70616e7920696e636c75646564207375636365737366756c6c79000000600082015250565b6000613b38601d836134b0565b9150613b4382613b02565b602082019050919050565b60006020820190508181036000830152613b6781613b2b565b9050919050565b7f5468697320636f6d70616e79206973206e6f7420617574686f72697a6564206260008201527f79207468652073747564656e74206f7220756e69766572736974790000000000602082015250565b6000613bca603b836134b0565b9150613bd582613b6e565b604082019050919050565b60006020820190508181036000830152613bf981613bbd565b9050919050565b7f4e487b7100000000000000000000000000000000000000000000000000000000600052602260045260246000fd5b60006002820490506001821680613c4757607f821691505b602082108103613c5a57613c59613c00565b5b50919050565b7f4f6e6c792076616c696420756e697665727369746965732063616e207665726960008201527f667920646f63756d656e74730000000000000000000000000000000000000000602082015250565b6000613cbc602c836134b0565b9150613cc782613c60565b604082019050919050565b60006020820190508181036000830152613ceb81613caf565b9050919050565b7f6f6c64204950465320686173682063616e6e6f7420626520656d707479000000600082015250565b6000613d28601d836134b0565b9150613d3382613cf2565b602082019050919050565b60006020820190508181036000830152613d5781613d1b565b9050919050565b7f6e6577204950465320686173682063616e6e6f7420626520656d707479000000600082015250565b6000613d94601d836134b0565b9150613d9f82613d5e565b602082019050919050565b60006020820190508181036000830152613dc381613d87565b9050919050565b7f5468697320756e6976657273697479206973206e6f7420617574686f72697a6560008201527f6420746f2076657269667920746869732073747564656e74277320646f63756d60208201527f656e740000000000000000000000000000000000000000000000000000000000604082015250565b6000613e4c6043836134b0565b9150613e5782613dca565b606082019050919050565b60006020820190508181036000830152613e7b81613e3f565b9050919050565b60008190508160005260206000209050919050565b60008154613ea481613c2f565b613eae8186613605565b94506001821660008114613ec95760018114613eda57613f0d565b60ff19831686528186019350613f0d565b613ee385613e82565b60005b83811015613f0557815481890152600182019150602081019050613ee6565b838801955050505b50505092915050565b6000613f228284613e97565b915081905092915050565b7f46616b6520646f63756d656e7400000000000000000000000000000000000000600082015250565b6000613f63600d836134b0565b9150613f6e82613f2d565b602082019050919050565b60006020820190508181036000830152613f9281613f56565b9050919050565b7f446f63756d656e7420697320616c726561647920766572696669656400000000600082015250565b6000613fcf601c836134b0565b9150613fda82613f99565b602082019050919050565b60006020820190508181036000830152613ffe81613fc2565b9050919050565b7f446f63756d656e74207665726966696564207375636365737366756c6c790000600082015250565b600061403b601e836134b0565b915061404682614005565b602082019050919050565b6000602082019050818103600083015261406a8161402e565b9050919050565b7f4f6e6c792076616c696420756e697665727369746965732063616e20756e766560008201527f7269667920646f63756d656e7473000000000000000000000000000000000000602082015250565b60006140cd602e836134b0565b91506140d882614071565b604082019050919050565b600060208201905081810360008301526140fc816140c0565b9050919050565b7f5468697320756e6976657273697479206973206e6f7420617574686f72697a6560008201527f6420746f20756e76657269667920746869732073747564656e74277320646f6360208201527f756d656e74000000000000000000000000000000000000000000000000000000604082015250565b60006141856045836134b0565b915061419082614103565b606082019050919050565b600060208201905081810360008301526141b481614178565b9050919050565b7f446f63756d656e7420697320616c726561647920756e76657269666965640000600082015250565b60006141f1601e836134b0565b91506141fc826141bb565b602082019050919050565b60006020820190508181036000830152614220816141e4565b9050919050565b7f446f63756d656e7420756e7665726966696564207375636365737366756c6c79600082015250565b600061425d6020836134b0565b915061426882614227565b602082019050919050565b6000602082019050818103600083015261428c81614250565b9050919050565b7f636f6d70616e792072656769737465726564207375636365737366756c6c7900600082015250565b60006142c9601f836134b0565b91506142d482614293565b602082019050919050565b600060208201905081810360008301526142f8816142bc565b9050919050565b7f756e697665727369747920616c72656164792076657269666965640000000000600082015250565b6000614335601b836134b0565b9150614340826142ff565b602082019050919050565b6000602082019050818103600083015261436481614328565b9050919050565b7f756e6976657273697479207665726966696564207375636365737366756c6c79600082015250565b60006143a16020836134b0565b91506143ac8261436b565b602082019050919050565b600060208201905081810360008301526143d081614394565b9050919050565b7f726571756972652076616c696420756e69766572736974790000000000000000600082015250565b600061440d6018836134b0565b9150614418826143d7565b602082019050919050565b6000602082019050818103600083015261443c81614400565b9050919050565b7f436f6d70616e79206973206e6f7420696e636c7564656420627920746865207360008201527f747564656e74206f7220756e6976657273697479000000000000000000000000602082015250565b600061449f6034836134b0565b91506144aa82614443565b604082019050919050565b600060208201905081810360008301526144ce81614492565b9050919050565b7f4f6e6c7920446f63756d656e74204f776e6572206f7220756e6976657273697460008201527f792063616e20706572666f726d207468697320616374696f6e00000000000000602082015250565b60006145316039836134b0565b915061453c826144d5565b604082019050919050565b6000602082019050818103600083015261456081614524565b9050919050565b7f636f6d70616e792072656d6f766564207375636365737366756c6c7900000000600082015250565b600061459d601c836134b0565b91506145a882614567565b602082019050919050565b600060208201905081810360008301526145cc81614590565b9050919050565b7f636f6d70616e7920616c7265647920756e766572696669656400000000000000600082015250565b60006146096019836134b0565b9150614614826145d3565b602082019050919050565b60006020820190508181036000830152614638816145fc565b9050919050565b7f636f6d70616e7920756e2d7665726966696564207375636365737366756c6c79600082015250565b60006146756020836134b0565b91506146808261463f565b602082019050919050565b600060208201905081810360008301526146a481614668565b9050919050565b7f636f6d70616e7920616c72656479207665726966696564000000000000000000600082015250565b60006146e16017836134b0565b91506146ec826146ab565b602082019050919050565b60006020820190508181036000830152614710816146d4565b9050919050565b7f636f6d70616e79207665726966696564207375636365737366756c6c79000000600082015250565b600061474d601d836134b0565b915061475882614717565b602082019050919050565b6000602082019050818103600083015261477c81614740565b905091905056fea264697066735822122096157b60e41d574a2d16459246eb35b1c3f2f6715f2481af7053fd7ab727c42964736f6c634300080d0033",
  "immutableReferences": {},
  "source": "// SPDX-License-Identifier: MIT\r\npragma solidity ^0.8.0;\r\n\r\n\r\ncontract Contract {\r\n    struct Document {\r\n        address owner;             // Address of the document owner (student)\r\n        address universityAddress; // Address of the university that can verify the document\r\n        string ipfsHash;          // IPFS hash of the document\r\n        bool verified;            // Indicates if the document is verified by the university\r\n    }\r\n\r\n    mapping(string => mapping(address => bool)) private  AccessCompanyMapping;   //document->companies[]\r\n    mapping(address => bool) private  universities;      //valid or invalid university list\r\n    mapping(address => bool) private  companies;         //valid or invalid companies list\r\n    mapping(string => Document) private  documentsById; // Mapping to store documents by their unique Id\r\n    mapping(address => string[]) private universityDocumentList; // mapping of university-> document[] list//\r\n    mapping(address => string[]) private studentDocumentList; // mapping of student-> document[] list//\r\n    \r\n\r\n    address[] private  universityAddresses; // Separate array to store university addresses\r\n    address[] private  companyAddresses; // Separate array to store company addresses\r\n   \r\n\r\n\r\n    address private  contractOwner;     //contract owner\r\n\r\n    event LogPrint(string  message);   //success log \r\n\r\n    constructor() {\r\n        contractOwner = msg.sender; // Set the contract owner to the address that deploys the contract\r\n    }\r\n\r\n    modifier onlyOwner() {\r\n        require(msg.sender == contractOwner, \"Only the contract owner can perform this action\");\r\n        _;\r\n    }\r\n\r\n    function getOwner() public view returns(address){\r\n        return contractOwner;\r\n    }\r\n\r\n\r\n    function uploadDocument(string memory uniqueId,string memory ipfsHash, address universityAddress) public {  //call by student or university\r\n        require(bytes(ipfsHash).length > 0, \"IPFS hash cannot be empty\");\r\n        require(bytes(uniqueId).length > 0, \"uniqueId cannot be empty\");\r\n        require(documentsById[uniqueId].owner== address(0), \"Document already exist\");\r\n        require(universities[universityAddress], \"Only Registered university is allowed\");\r\n             \r\n\r\n        Document memory document = Document({\r\n            owner: msg.sender,\r\n            universityAddress: universityAddress,\r\n            ipfsHash: ipfsHash,\r\n            verified: false\r\n        });\r\n\r\n        documentsById[uniqueId] = document; // Store the document by its id // \r\n        universityDocumentList[universityAddress].push(uniqueId); //add new id in university document list\r\n        studentDocumentList[msg.sender].push(uniqueId);  //add new id in student document list\r\n         emit LogPrint(\"Document uploaded successfully\");\r\n    }\r\n\r\n    function verifyDocument(string memory uniqueId,string memory oldipfsHash,string memory newipfsHash) public  { //only call by university\r\n        require(bytes(uniqueId).length > 0, \"uniqueId cannot be empty\");\r\n        require(universities[msg.sender], \"Only valid universities can verify documents\");\r\n        require(bytes(oldipfsHash).length > 0, \"old IPFS hash cannot be empty\");\r\n        require(bytes(newipfsHash).length > 0, \"new IPFS hash cannot be empty\");\r\n        require(documentsById[uniqueId].owner!= address(0), \"Document does not exist\");\r\n        Document storage document = documentsById[uniqueId];\r\n        require(document.universityAddress==msg.sender, \"This university is not authorized to verify this student's document\");\r\n        require(keccak256(abi.encodePacked(document.ipfsHash)) == keccak256(abi.encodePacked(oldipfsHash)),\"Fake document\");\r\n        require(!document.verified, \"Document is already verified\");\r\n        document.ipfsHash=newipfsHash;\r\n        document.verified = true;\r\n         emit LogPrint(\"Document verified successfully\");\r\n        \r\n    }\r\n    function unverifyDocument(string memory uniqueId,string memory newipfsHash) public  { //only call by university\r\n        require(bytes(uniqueId).length > 0, \"uniqueId cannot be empty\");\r\n        require(universities[msg.sender], \"Only valid universities can unverify documents\");\r\n        require(bytes(newipfsHash).length > 0, \"new IPFS hash cannot be empty\");\r\n        require(documentsById[uniqueId].owner!= address(0), \"Document does not exist\");\r\n        Document storage document = documentsById[uniqueId];\r\n        require(document.universityAddress==msg.sender, \"This university is not authorized to unverify this student's document\");\r\n        require(keccak256(abi.encodePacked(document.ipfsHash)) == keccak256(abi.encodePacked(newipfsHash)),\"Fake document\");\r\n        require(document.verified, \"Document is already unverified\");\r\n        \r\n        document.verified = false;\r\n         emit LogPrint(\"Document unverified successfully\");\r\n    }\r\n    \r\n\r\n    function includeCompany(string memory uniqueId,address companyAddress) public   { // can be call by student or university\r\n        require(bytes(uniqueId).length > 0, \"uniqueId cannot be empty\");\r\n        require(companies[companyAddress],\"Require Valid Company\");\r\n        require(documentsById[uniqueId].owner!= address(0), \"Document does not exist\");\r\n     \r\n        require(!AccessCompanyMapping[uniqueId][companyAddress], \"Company is already included\");\r\n     \r\n        Document storage document = documentsById[uniqueId];\r\n        require(document.owner==msg.sender||document.universityAddress==msg.sender,\"Only Document Owner or University can perform this action\");\r\n       \r\n        AccessCompanyMapping[uniqueId][companyAddress] = true;\r\n         emit LogPrint(\"company included successfully\");\r\n    }\r\n\r\n    function removeCompany(string memory uniqueId,address companyAddress) public {  // can be call by student or university\r\n        require(bytes(uniqueId).length > 0, \"uniqueId cannot be empty\");\r\n        require(companies[companyAddress],\"Require Valid Company\");\r\n        require(documentsById[uniqueId].owner!= address(0), \"Document does not exist\");\r\n     \r\n        require( AccessCompanyMapping[uniqueId][companyAddress], \"Company is not included by the student or university\");\r\n      \r\n        Document storage document = documentsById[uniqueId];\r\n        require(document.owner==msg.sender||document.universityAddress==msg.sender,\"Only Document Owner or university can perform this action\");\r\n       \r\n        AccessCompanyMapping[uniqueId][companyAddress] = false;\r\n         emit LogPrint(\"company removed successfully\");\r\n    }\r\n\r\n    function checkStatus(string memory uniqueId) public view  returns (string[2] memory) { // can be call by student or university or comapny with mapping with student or university\r\n        require(bytes(uniqueId).length > 0, \"uniqueId cannot be empty\");\r\n        require(documentsById[uniqueId].owner!= address(0), \"Document does not exist\");\r\n        \r\n        Document storage document = documentsById[uniqueId];\r\n        \r\n        require(AccessCompanyMapping[uniqueId][msg.sender] ||document.owner==msg.sender||document.universityAddress==msg.sender,\"This company is not authorized by the student or university\" );\r\n        if(document.verified){\r\n        return [\"true\",document.ipfsHash];\r\n        }else{\r\n        return [\"false\",document.ipfsHash];\r\n  \r\n        }\r\n        \r\n    }\r\n    function checknverify(string memory uniqueId,string memory newipfsHash) public view  returns (bool) { // can be call by student or university or comapny with mapping with student or university\r\n        require(bytes(newipfsHash).length > 0, \"IPFS hash cannot be empty\");\r\n        require(bytes(uniqueId).length > 0, \"uniqueId cannot be empty\");\r\n        require(documentsById[uniqueId].owner!= address(0), \"Document does not exist\");\r\n        \r\n        Document storage document = documentsById[uniqueId];\r\n        \r\n        require(AccessCompanyMapping[uniqueId][msg.sender] ||document.owner==msg.sender||document.universityAddress==msg.sender,\"This company is not authorized by the student or university\" );\r\n        require(keccak256(abi.encodePacked(document.ipfsHash)) == keccak256(abi.encodePacked(newipfsHash)),\"Fake document\");\r\n        return document.verified;\r\n    }\r\n\r\n    function registerCompany() public {  //call by company//no check//\r\n        companies[msg.sender]=false; \r\n        companyAddresses.push(msg.sender);         //creates a new company/\r\n         emit LogPrint(\"company registered successfully\");\r\n    }\r\n\r\n    function verifyCompany(address companyAddress) public onlyOwner{\r\n        require( !companies[companyAddress],\"company alredy verified\");\r\n         companies[companyAddress] = true; \r\n          emit LogPrint(\"company verified successfully\");\r\n    }\r\n\r\n    function unverifyCompany(address companyAddress) public onlyOwner{\r\n        require( companies[companyAddress],\"company alredy unverified\");\r\n         companies[companyAddress] = false; \r\n          emit LogPrint(\"company un-verified successfully\");\r\n         \r\n    }\r\n    \r\n    \r\n    function addUniversity() public    //no check//\r\n     {\r\n        universities[msg.sender] = false; \r\n        universityAddresses.push(msg.sender);\r\n         emit LogPrint(\"university added successfully\");\r\n    }\r\n\r\n    function verifyUniversity(address universityAddress) public onlyOwner{ //onlyOwner   \r\n        require( !universities[universityAddress],\"university already verified\");\r\n        universities[universityAddress] = true; \r\n         emit LogPrint(\"university verified successfully\");\r\n    }\r\n\r\n    function removeUniversity(address universityAddress) public onlyOwner{ //onlyOwner  \r\n        require( universities[universityAddress],\"university already unverified\");\r\n        universities[universityAddress] = false; \r\n         emit LogPrint(\"university removed successfully\");\r\n    }\r\n\r\n\r\n    // Function to get all university addresses\r\n    function getAllUniversityAddresses() public view returns (address[] memory) {\r\n        return universityAddresses;\r\n    }\r\n\r\n    // Function to get all company addresses\r\n    function getAllCompanyAddresses() public view returns (address[] memory) {\r\n        return companyAddresses;\r\n    }\r\n\r\n    function checkUniversity(address universityAddress) public view returns(bool){\r\n        return  universities[universityAddress];\r\n    }\r\n\r\n    function checkCompany(address companyAddress) public view returns(bool){\r\n        return  companies[companyAddress];\r\n    }\r\n\r\n    function getUniversityDocumentList() public view returns(string[] memory){\r\n    require( universities[msg.sender],\"require valid university\");\r\n       return universityDocumentList[msg.sender];\r\n    }\r\n    \r\n    function getStudentDocumentList() public view returns(string[] memory){\r\n       return studentDocumentList[msg.sender];\r\n    }\r\n\r\n\r\n}",
  "sourcePath": "G:\\Digital_Document_Verification_using_Blockchain_and_IPFS\\main\\SmartContract\\contracts\\Contract.sol",
  "compiler": {
    "name": "solc",
    "version": "0.8.13+commit.abaa5c0e.Emscripten.clang"
  },
  "schemaVersion": "3.4.16",
  "updatedAt": "2023-10-28T13:01:45.259Z",
  "networkType": "ethereum",
  "devdoc": {
    "kind": "dev",
    "methods": {},
    "version": 1
  },
  "userdoc": {
    "kind": "user",
    "methods": {},
    "version": 1
  }
}